{
  "contractName": "Orders",
  "abi": [
    {
      "anonymous": false,
      "inputs": [
        {
          "indexed": false,
          "internalType": "uint256",
          "name": "productId",
          "type": "uint256"
        },
        {
          "indexed": false,
          "internalType": "string",
          "name": "productName",
          "type": "string"
        },
        {
          "indexed": false,
          "internalType": "uint256",
          "name": "quantity",
          "type": "uint256"
        },
        {
          "indexed": false,
          "internalType": "uint256",
          "name": "timestamp",
          "type": "uint256"
        }
      ],
      "name": "AddOrder",
      "type": "event"
    },
    {
      "anonymous": false,
      "inputs": [
        {
          "indexed": false,
          "internalType": "uint256",
          "name": "orderId",
          "type": "uint256"
        },
        {
          "indexed": false,
          "internalType": "string",
          "name": "progress",
          "type": "string"
        },
        {
          "indexed": false,
          "internalType": "uint256",
          "name": "timestamp",
          "type": "uint256"
        }
      ],
      "name": "MarkOrder",
      "type": "event"
    },
    {
      "anonymous": false,
      "inputs": [
        {
          "indexed": false,
          "internalType": "address",
          "name": "currentOwner",
          "type": "address"
        },
        {
          "indexed": false,
          "internalType": "address",
          "name": "newOwner",
          "type": "address"
        }
      ],
      "name": "TransferOwnership",
      "type": "event"
    },
    {
      "constant": true,
      "inputs": [
        {
          "internalType": "address",
          "name": "checkOwner",
          "type": "address"
        }
      ],
      "name": "isOwner",
      "outputs": [
        {
          "internalType": "bool",
          "name": "",
          "type": "bool"
        }
      ],
      "payable": false,
      "stateMutability": "view",
      "type": "function"
    },
    {
      "constant": true,
      "inputs": [],
      "name": "owner",
      "outputs": [
        {
          "internalType": "address",
          "name": "",
          "type": "address"
        }
      ],
      "payable": false,
      "stateMutability": "view",
      "type": "function"
    },
    {
      "constant": false,
      "inputs": [
        {
          "internalType": "address",
          "name": "newOwner",
          "type": "address"
        }
      ],
      "name": "transferOwnership",
      "outputs": [],
      "payable": false,
      "stateMutability": "nonpayable",
      "type": "function"
    },
    {
      "constant": false,
      "inputs": [
        {
          "components": [
            {
              "internalType": "uint256",
              "name": "productId",
              "type": "uint256"
            },
            {
              "internalType": "string",
              "name": "productName",
              "type": "string"
            },
            {
              "internalType": "bool",
              "name": "exist",
              "type": "bool"
            }
          ],
          "internalType": "struct Products.Product",
          "name": "product",
          "type": "tuple"
        },
        {
          "internalType": "uint256",
          "name": "quantity",
          "type": "uint256"
        }
      ],
      "name": "addOrder",
      "outputs": [],
      "payable": false,
      "stateMutability": "nonpayable",
      "type": "function"
    },
    {
      "constant": true,
      "inputs": [
        {
          "internalType": "uint256",
          "name": "orderId",
          "type": "uint256"
        }
      ],
      "name": "getOrder",
      "outputs": [
        {
          "components": [
            {
              "internalType": "uint256",
              "name": "orderId",
              "type": "uint256"
            },
            {
              "components": [
                {
                  "internalType": "uint256",
                  "name": "productId",
                  "type": "uint256"
                },
                {
                  "internalType": "string",
                  "name": "productName",
                  "type": "string"
                },
                {
                  "internalType": "bool",
                  "name": "exist",
                  "type": "bool"
                }
              ],
              "internalType": "struct Products.Product",
              "name": "product",
              "type": "tuple"
            },
            {
              "internalType": "uint256",
              "name": "quantity",
              "type": "uint256"
            },
            {
              "internalType": "bool",
              "name": "exist",
              "type": "bool"
            },
            {
              "internalType": "enum Orders.Phase",
              "name": "phase",
              "type": "uint8"
            }
          ],
          "internalType": "struct Orders.Order",
          "name": "",
          "type": "tuple"
        }
      ],
      "payable": false,
      "stateMutability": "view",
      "type": "function"
    },
    {
      "constant": true,
      "inputs": [],
      "name": "getAllActiveOrders",
      "outputs": [
        {
          "components": [
            {
              "internalType": "uint256",
              "name": "orderId",
              "type": "uint256"
            },
            {
              "components": [
                {
                  "internalType": "uint256",
                  "name": "productId",
                  "type": "uint256"
                },
                {
                  "internalType": "string",
                  "name": "productName",
                  "type": "string"
                },
                {
                  "internalType": "bool",
                  "name": "exist",
                  "type": "bool"
                }
              ],
              "internalType": "struct Products.Product",
              "name": "product",
              "type": "tuple"
            },
            {
              "internalType": "uint256",
              "name": "quantity",
              "type": "uint256"
            },
            {
              "internalType": "bool",
              "name": "exist",
              "type": "bool"
            },
            {
              "internalType": "enum Orders.Phase",
              "name": "phase",
              "type": "uint8"
            }
          ],
          "internalType": "struct Orders.Order[]",
          "name": "",
          "type": "tuple[]"
        }
      ],
      "payable": false,
      "stateMutability": "view",
      "type": "function"
    },
    {
      "constant": true,
      "inputs": [],
      "name": "getAllHistoryOrders",
      "outputs": [
        {
          "components": [
            {
              "internalType": "uint256",
              "name": "orderId",
              "type": "uint256"
            },
            {
              "components": [
                {
                  "internalType": "uint256",
                  "name": "productId",
                  "type": "uint256"
                },
                {
                  "internalType": "string",
                  "name": "productName",
                  "type": "string"
                },
                {
                  "internalType": "bool",
                  "name": "exist",
                  "type": "bool"
                }
              ],
              "internalType": "struct Products.Product",
              "name": "product",
              "type": "tuple"
            },
            {
              "internalType": "uint256",
              "name": "quantity",
              "type": "uint256"
            },
            {
              "internalType": "bool",
              "name": "exist",
              "type": "bool"
            },
            {
              "internalType": "enum Orders.Phase",
              "name": "phase",
              "type": "uint8"
            }
          ],
          "internalType": "struct Orders.Order[]",
          "name": "",
          "type": "tuple[]"
        }
      ],
      "payable": false,
      "stateMutability": "view",
      "type": "function"
    },
    {
      "constant": true,
      "inputs": [],
      "name": "getTotalPage",
      "outputs": [
        {
          "internalType": "uint256",
          "name": "",
          "type": "uint256"
        }
      ],
      "payable": false,
      "stateMutability": "view",
      "type": "function"
    },
    {
      "constant": true,
      "inputs": [
        {
          "internalType": "uint256",
          "name": "page",
          "type": "uint256"
        }
      ],
      "name": "getPageHistoryOrders",
      "outputs": [
        {
          "components": [
            {
              "internalType": "uint256",
              "name": "orderId",
              "type": "uint256"
            },
            {
              "components": [
                {
                  "internalType": "uint256",
                  "name": "productId",
                  "type": "uint256"
                },
                {
                  "internalType": "string",
                  "name": "productName",
                  "type": "string"
                },
                {
                  "internalType": "bool",
                  "name": "exist",
                  "type": "bool"
                }
              ],
              "internalType": "struct Products.Product",
              "name": "product",
              "type": "tuple"
            },
            {
              "internalType": "uint256",
              "name": "quantity",
              "type": "uint256"
            },
            {
              "internalType": "bool",
              "name": "exist",
              "type": "bool"
            },
            {
              "internalType": "enum Orders.Phase",
              "name": "phase",
              "type": "uint8"
            }
          ],
          "internalType": "struct Orders.Order[]",
          "name": "",
          "type": "tuple[]"
        }
      ],
      "payable": false,
      "stateMutability": "view",
      "type": "function"
    },
    {
      "constant": false,
      "inputs": [
        {
          "internalType": "uint256",
          "name": "orderId",
          "type": "uint256"
        },
        {
          "internalType": "string",
          "name": "progress",
          "type": "string"
        },
        {
          "internalType": "enum Orders.Phase",
          "name": "phase",
          "type": "uint8"
        }
      ],
      "name": "markOrderProgress",
      "outputs": [],
      "payable": false,
      "stateMutability": "nonpayable",
      "type": "function"
    },
    {
      "constant": false,
      "inputs": [
        {
          "internalType": "uint256",
          "name": "orderId",
          "type": "uint256"
        }
      ],
      "name": "completeOrder",
      "outputs": [],
      "payable": false,
      "stateMutability": "nonpayable",
      "type": "function"
    }
  ],
  "bytecode": "0x60806040526000600255600060035560016004556064600555336000806101000a81548173ffffffffffffffffffffffffffffffffffffffff021916908373ffffffffffffffffffffffffffffffffffffffff1602179055507f5c486528ec3e3f0ea91181cff8116f02bfa350e03b8b6f12e00765adbb5af85c60008060009054906101000a900473ffffffffffffffffffffffffffffffffffffffff16604051620000ad929190620000dd565b60405180910390a16200017a565b620000c6816200013e565b82525050565b620000d7816200010a565b82525050565b6000604082019050620000f46000830185620000bb565b620001036020830184620000cc565b9392505050565b600062000117826200011e565b9050919050565b600073ffffffffffffffffffffffffffffffffffffffff82169050919050565b60006200014b8262000152565b9050919050565b60006200015f8262000166565b9050919050565b600062000173826200011e565b9050919050565b612090806200018a6000396000f3fe608060405234801561001057600080fd5b50600436106100a95760003560e01c80638da5cb5b116100715780638da5cb5b146101525780639e89980614610170578063ab897ad91461018e578063b6adaaff146101be578063d09ef241146101da578063f2fde38b1461020a576100a9565b80630f4fcdb4146100ae5780632f54bf6e146100ca5780634ef9d956146100fa578063623324d9146101185780638c79315414610136575b600080fd5b6100c860048036036100c3919081019061179a565b610226565b005b6100e460048036036100df91908101906116f4565b610300565b6040516100f19190611c97565b60405180910390f35b610102610359565b60405161010f9190611d54565b60405180910390f35b610120610363565b60405161012d9190611c75565b60405180910390f35b610150600480360361014b919081019061171d565b610581565b005b61015a610797565b6040516101679190611c31565b60405180910390f35b6101786107bc565b6040516101859190611c75565b60405180910390f35b6101a860048036036101a39190810190611771565b6109ac565b6040516101b59190611c75565b60405180910390f35b6101d860048036036101d39190810190611771565b610b9a565b005b6101f460048036036101ef9190810190611771565b6110cd565b6040516102019190611d32565b60405180910390f35b610224600480360361021f91908101906116f4565b611294565b005b6006600084815260200190815260200160002060050160009054906101000a900460ff16610289576040517f08c379a000000000000000000000000000000000000000000000000000000000815260040161028090611cf2565b60405180910390fd5b806006600085815260200190815260200160002060050160016101000a81548160ff021916908360048111156102bb57fe5b02179055507f6219b2057b227691c08ab1e3f78fa8e3fdb3768e363c9b602149ca7290535ad48383426040516102f393929190611d6f565b60405180910390a1505050565b60008173ffffffffffffffffffffffffffffffffffffffff166000809054906101000a900473ffffffffffffffffffffffffffffffffffffffff1673ffffffffffffffffffffffffffffffffffffffff16149050919050565b6000600454905090565b6060806002546040519080825280602002602001820160405280156103a257816020015b61038f6113c0565b8152602001906001900390816103875790505b5090506000600190505b60045481116105795760008090505b600760008381526020019081526020016000208054905081101561056b576007600083815260200190815260200160002081815481106103f757fe5b90600052602060002090600602016040518060a0016040529081600082015481526020016001820160405180606001604052908160008201548152602001600182018054600181600116156101000203166002900480601f0160208091040260200160405190810160405280929190818152602001828054600181600116156101000203166002900480156104cd5780601f106104a2576101008083540402835291602001916104cd565b820191906000526020600020905b8154815290600101906020018083116104b057829003601f168201915b505050505081526020016002820160009054906101000a900460ff1615151515815250508152602001600482015481526020016005820160009054906101000a900460ff161515151581526020016005820160019054906101000a900460ff16600481111561053857fe5b600481111561054357fe5b8152505083828151811061055357fe5b602002602001018190525080806001019150506103bb565b5080806001019150506103ac565b508091505090565b6000809054906101000a900473ffffffffffffffffffffffffffffffffffffffff1673ffffffffffffffffffffffffffffffffffffffff163373ffffffffffffffffffffffffffffffffffffffff1614610610576040517f08c379a000000000000000000000000000000000000000000000000000000000815260040161060790611d12565b60405180910390fd5b6040518060a0016040528060035481526020018381526020018281526020016001151581526020016000600481111561064557fe5b81525060066000600354815260200190815260200160002060008201518160000155602082015181600101600082015181600001556020820151816001019080519060200190610696929190611402565b5060408201518160020160006101000a81548160ff02191690831515021790555050506040820151816004015560608201518160050160006101000a81548160ff02191690831515021790555060808201518160050160016101000a81548160ff0219169083600481111561070757fe5b02179055509050506001600354908060018154018082558091505090600182039060005260206000200160009091929091909150555060016003600082825401925050819055507f6fc30226762c150ab6fa88d873497674f593edbd2f9701cf1dc0e4e81fbc2da282600001518360200151834260405161078b9493929190611dad565b60405180910390a15050565b6000809054906101000a900473ffffffffffffffffffffffffffffffffffffffff1681565b6060806001805490506040519080825280602002602001820160405280156107fe57816020015b6107eb6113c0565b8152602001906001900390816107e35790505b50905060008090505b6001805490508110156109a457600660006001838154811061082557fe5b906000526020600020015481526020019081526020016000206040518060a0016040529081600082015481526020016001820160405180606001604052908160008201548152602001600182018054600181600116156101000203166002900480601f0160208091040260200160405190810160405280929190818152602001828054600181600116156101000203166002900480156109065780601f106108db57610100808354040283529160200191610906565b820191906000526020600020905b8154815290600101906020018083116108e957829003601f168201915b505050505081526020016002820160009054906101000a900460ff1615151515815250508152602001600482015481526020016005820160009054906101000a900460ff161515151581526020016005820160019054906101000a900460ff16600481111561097157fe5b600481111561097c57fe5b8152505082828151811061098c57fe5b60200260200101819052508080600101915050610807565b508091505090565b60606004548211156109f3576040517f08c379a00000000000000000000000000000000000000000000000000000000081526004016109ea90611cd2565b60405180910390fd5b60076000838152602001908152602001600020805480602002602001604051908101604052809291908181526020016000905b82821015610b8f57838290600052602060002090600602016040518060a0016040529081600082015481526020016001820160405180606001604052908160008201548152602001600182018054600181600116156101000203166002900480601f016020809104026020016040519081016040528092919081815260200182805460018160011615610100020316600290048015610b065780601f10610adb57610100808354040283529160200191610b06565b820191906000526020600020905b815481529060010190602001808311610ae957829003601f168201915b505050505081526020016002820160009054906101000a900460ff1615151515815250508152602001600482015481526020016005820160009054906101000a900460ff161515151581526020016005820160019054906101000a900460ff166004811115610b7157fe5b6004811115610b7c57fe5b8152505081526020019060010190610a26565b505050509050919050565b6006600082815260200190815260200160002060050160009054906101000a900460ff16610bfd576040517f08c379a0000000000000000000000000000000000000000000000000000000008152600401610bf490611cf2565b60405180910390fd5b60036004811115610c0a57fe5b6006600083815260200190815260200160002060050160019054906101000a900460ff166004811115610c3957fe5b14610c79576040517f08c379a0000000000000000000000000000000000000000000000000000000008152600401610c7090611cb2565b60405180910390fd5b600080905060008090505b600180549050811015610cc5578260018281548110610c9f57fe5b90600052602060002001541415610cb857809150610cc5565b8080600101915050610c84565b5060008190505b6001808054905003811015610d1d57600180820181548110610cea57fe5b906000526020600020015460018281548110610d0257fe5b90600052602060002001819055508080600101915050610ccc565b5060018080805490500381548110610d3157fe5b90600052602060002001600090556001805480919060019003610d549190611482565b50610d5d6114ae565b600660008481526020019081526020016000206040518060a0016040529081600082015481526020016001820160405180606001604052908160008201548152602001600182018054600181600116156101000203166002900480601f016020809104026020016040519081016040528092919081815260200182805460018160011615610100020316600290048015610e385780601f10610e0d57610100808354040283529160200191610e38565b820191906000526020600020905b815481529060010190602001808311610e1b57829003601f168201915b505050505081526020016002820160009054906101000a900460ff1615151515815250508152602001600482015481526020016005820160009054906101000a900460ff161515151581526020016005820160019054906101000a900460ff166004811115610ea357fe5b6004811115610eae57fe5b815250509050600481608001906004811115610ec657fe5b90816004811115610ed357fe5b815250506006600084815260200190815260200160002060008082016000905560018201600080820160009055600182016000610f1091906114f0565b6002820160006101000a81549060ff0219169055505060048201600090556005820160006101000a81549060ff02191690556005820160016101000a81549060ff021916905550506005546007600060045481526020019081526020016000208054905010610f8b5760016004600082825401925050819055505b600760006004548152602001908152602001600020819080600181540180825580915050906001820390600052602060002090600602016000909192909190915060008201518160000155602082015181600101600082015181600001556020820151816001019080519060200190611005929190611402565b5060408201518160020160006101000a81548160ff02191690831515021790555050506040820151816004015560608201518160050160006101000a81548160ff02191690831515021790555060808201518160050160016101000a81548160ff0219169083600481111561107657fe5b021790555050505060016002600082825401925050819055507f6219b2057b227691c08ab1e3f78fa8e3fdb3768e363c9b602149ca7290535ad483426040516110c0929190611df9565b60405180910390a1505050565b6110d56114ae565b6006600083815260200190815260200160002060050160009054906101000a900460ff16611138576040517f08c379a000000000000000000000000000000000000000000000000000000000815260040161112f90611cf2565b60405180910390fd5b600660008381526020019081526020016000206040518060a0016040529081600082015481526020016001820160405180606001604052908160008201548152602001600182018054600181600116156101000203166002900480601f0160208091040260200160405190810160405280929190818152602001828054600181600116156101000203166002900480156112135780601f106111e857610100808354040283529160200191611213565b820191906000526020600020905b8154815290600101906020018083116111f657829003601f168201915b505050505081526020016002820160009054906101000a900460ff1615151515815250508152602001600482015481526020016005820160009054906101000a900460ff161515151581526020016005820160019054906101000a900460ff16600481111561127e57fe5b600481111561128957fe5b815250509050919050565b6000809054906101000a900473ffffffffffffffffffffffffffffffffffffffff1673ffffffffffffffffffffffffffffffffffffffff163373ffffffffffffffffffffffffffffffffffffffff1614611323576040517f08c379a000000000000000000000000000000000000000000000000000000000815260040161131a90611d12565b60405180910390fd5b7f5c486528ec3e3f0ea91181cff8116f02bfa350e03b8b6f12e00765adbb5af85c6000809054906101000a900473ffffffffffffffffffffffffffffffffffffffff1682604051611375929190611c4c565b60405180910390a1806000806101000a81548173ffffffffffffffffffffffffffffffffffffffff021916908373ffffffffffffffffffffffffffffffffffffffff16021790555050565b6040518060a00160405280600081526020016113da611538565b815260200160008152602001600015158152602001600060048111156113fc57fe5b81525090565b828054600181600116156101000203166002900490600052602060002090601f016020900481019282601f1061144357805160ff1916838001178555611471565b82800160010185558215611471579182015b82811115611470578251825591602001919060010190611455565b5b50905061147e919061155b565b5090565b8154818355818111156114a9578183600052602060002091820191016114a8919061155b565b5b505050565b6040518060a00160405280600081526020016114c8611538565b815260200160008152602001600015158152602001600060048111156114ea57fe5b81525090565b50805460018160011615610100020316600290046000825580601f106115165750611535565b601f016020900490600052602060002090810190611534919061155b565b5b50565b604051806060016040528060008152602001606081526020016000151581525090565b61157d91905b80821115611579576000816000905550600101611561565b5090565b90565b60008135905061158f81611ff8565b92915050565b6000813590506115a48161200f565b92915050565b6000813590506115b981612026565b92915050565b600082601f8301126115d057600080fd5b81356115e36115de82611e62565b611e35565b915080825260208301602083018583830111156115ff57600080fd5b61160a838284611f98565b50505092915050565b600082601f83011261162457600080fd5b813561163761163282611e8e565b611e35565b9150808252602083016020830185838301111561165357600080fd5b61165e838284611f98565b50505092915050565b60006060828403121561167957600080fd5b6116836060611e35565b90506000611693848285016116df565b600083015250602082013567ffffffffffffffff8111156116b357600080fd5b6116bf848285016115bf565b60208301525060406116d384828501611595565b60408301525092915050565b6000813590506116ee81612036565b92915050565b60006020828403121561170657600080fd5b600061171484828501611580565b91505092915050565b6000806040838503121561173057600080fd5b600083013567ffffffffffffffff81111561174a57600080fd5b61175685828601611667565b9250506020611767858286016116df565b9150509250929050565b60006020828403121561178357600080fd5b6000611791848285016116df565b91505092915050565b6000806000606084860312156117af57600080fd5b60006117bd868287016116df565b935050602084013567ffffffffffffffff8111156117da57600080fd5b6117e686828701611613565b92505060406117f7868287016115aa565b9150509250925092565b600061180d8383611b4d565b905092915050565b61181e81611f2b565b82525050565b600061182f82611eca565b6118398185611ef8565b93508360208202850161184b85611eba565b8060005b8581101561188757848403895281516118688582611801565b945061187383611eeb565b925060208a0199505060018101905061184f565b50829750879550505050505092915050565b6118a281611f3d565b82525050565b6118b181611f3d565b82525050565b6118c081611f86565b82525050565b60006118d182611ee0565b6118db8185611f1a565b93506118eb818560208601611fa7565b6118f481611fda565b840191505092915050565b600061190a82611ed5565b6119148185611f09565b9350611924818560208601611fa7565b61192d81611fda565b840191505092915050565b600061194382611ed5565b61194d8185611f1a565b935061195d818560208601611fa7565b61196681611fda565b840191505092915050565b600061197e600883611f1a565b91507f436f6d706c6574650000000000000000000000000000000000000000000000006000830152602082019050919050565b60006119be601d83611f1a565b91507f4f72646572206861736e2774206265656e2064697374726962757465640000006000830152602082019050919050565b60006119fe601383611f1a565b91507f50616765206c696d6974206578636565646564000000000000000000000000006000830152602082019050919050565b6000611a3e601783611f1a565b91507f4f7264657220494420646f6573206e6f742065786973740000000000000000006000830152602082019050919050565b6000611a7e603383611f1a565b91507f546869732066756e6374696f6e206973207265737472696374656420746f207460008301527f686520636f6e74726163742773206f776e6572000000000000000000000000006020830152604082019050919050565b600060a083016000830151611aef6000860182611c13565b5060208301518482036020860152611b078282611bc3565b9150506040830151611b1c6040860182611c13565b506060830151611b2f6060860182611899565b506080830151611b4260808601826118b7565b508091505092915050565b600060a083016000830151611b656000860182611c13565b5060208301518482036020860152611b7d8282611bc3565b9150506040830151611b926040860182611c13565b506060830151611ba56060860182611899565b506080830151611bb860808601826118b7565b508091505092915050565b6000606083016000830151611bdb6000860182611c13565b5060208301518482036020860152611bf382826118ff565b9150506040830151611c086040860182611899565b508091505092915050565b611c1c81611f7c565b82525050565b611c2b81611f7c565b82525050565b6000602082019050611c466000830184611815565b92915050565b6000604082019050611c616000830185611815565b611c6e6020830184611815565b9392505050565b60006020820190508181036000830152611c8f8184611824565b905092915050565b6000602082019050611cac60008301846118a8565b92915050565b60006020820190508181036000830152611ccb816119b1565b9050919050565b60006020820190508181036000830152611ceb816119f1565b9050919050565b60006020820190508181036000830152611d0b81611a31565b9050919050565b60006020820190508181036000830152611d2b81611a71565b9050919050565b60006020820190508181036000830152611d4c8184611ad7565b905092915050565b6000602082019050611d696000830184611c22565b92915050565b6000606082019050611d846000830186611c22565b8181036020830152611d9681856118c6565b9050611da56040830184611c22565b949350505050565b6000608082019050611dc26000830187611c22565b8181036020830152611dd48186611938565b9050611de36040830185611c22565b611df06060830184611c22565b95945050505050565b6000606082019050611e0e6000830185611c22565b8181036020830152611e1f81611971565b9050611e2e6040830184611c22565b9392505050565b6000604051905081810181811067ffffffffffffffff82111715611e5857600080fd5b8060405250919050565b600067ffffffffffffffff821115611e7957600080fd5b601f19601f8301169050602081019050919050565b600067ffffffffffffffff821115611ea557600080fd5b601f19601f8301169050602081019050919050565b6000819050602082019050919050565b600081519050919050565b600081519050919050565b600081519050919050565b6000602082019050919050565b600082825260208201905092915050565b600082825260208201905092915050565b600082825260208201905092915050565b6000611f3682611f5c565b9050919050565b60008115159050919050565b6000819050611f5782611feb565b919050565b600073ffffffffffffffffffffffffffffffffffffffff82169050919050565b6000819050919050565b6000611f9182611f49565b9050919050565b82818337600083830152505050565b60005b83811015611fc5578082015181840152602081019050611faa565b83811115611fd4576000848401525b50505050565b6000601f19601f8301169050919050565b60058110611ff557fe5b50565b61200181611f2b565b811461200c57600080fd5b50565b61201881611f3d565b811461202357600080fd5b50565b6005811061203357600080fd5b50565b61203f81611f7c565b811461204a57600080fd5b5056fea365627a7a72315820c03600ec2f147900cf8e6b23e33faa06ed690e7963d0d646802878d0d13929b86c6578706572696d656e74616cf564736f6c63430005100040",
  "source": "// SPDX-License-Identifier: MIT\npragma solidity 0.5.16;\npragma experimental ABIEncoderV2;\n\nimport \"./Owner.sol\";\nimport \"./Products.sol\";\n\ncontract Orders is Owner {\n    uint[] private _listOfOrders;\n    uint private _totalHistoryOrder = 0;\n    uint256 private _counterOrderId = 0;\n    uint256 private _pages = 1;\n    uint private MAX_PAGES = 100;\n    enum Phase { ORDERED, SUPPLIED, MANUFACTURED, DISTRIBUTED, SOLD }\n    struct Order {\n        uint orderId;\n        Products.Product product;\n        uint quantity;\n        bool exist;\n        Phase phase;\n    }\n    mapping(uint => Order) allActiveOrders;\n    mapping(uint => Order[]) allHistoryOrders;\n\n    event AddOrder(uint productId, string productName, uint quantity, uint256 timestamp);\n    event MarkOrder(uint orderId, string progress, uint256 timestamp);\n\n    function addOrder(Products.Product memory product, uint quantity) public onlyOwner {\n        allActiveOrders[_counterOrderId] = Order({\n            orderId: _counterOrderId,\n            product: product,\n            quantity: quantity,\n            exist: true,\n            phase: Phase.ORDERED\n        });\n        _listOfOrders.push(_counterOrderId);\n        _counterOrderId += 1;\n        emit AddOrder(product.productId, product.productName, quantity, block.timestamp);\n    }\n\n    function getOrder(uint orderId) public view returns (Order memory) {\n        require(allActiveOrders[orderId].exist, \"Order ID does not exist\");\n        return allActiveOrders[orderId];\n    }\n\n    function getAllActiveOrders() public view returns (Order[] memory) {\n        Order[] memory orders = new Order[](_listOfOrders.length);\n        for(uint i = 0; i < _listOfOrders.length; i++) {\n            orders[i] = allActiveOrders[_listOfOrders[i]];\n        }\n        return orders;\n    }\n\n    function getAllHistoryOrders() public view returns (Order[] memory) {\n        Order[] memory orders = new Order[](_totalHistoryOrder);\n        for(uint i = 1; i <= _pages; i++) {\n            for(uint j = 0; j < allHistoryOrders[i].length; j++) {\n                orders[j] = allHistoryOrders[i][j];\n            }\n        }\n        return orders;\n    }\n\n    function getTotalPage() public view returns (uint) {\n        return _pages;\n    }\n\n    function getPageHistoryOrders(uint page) public view returns (Order[] memory) {\n        require(page <= _pages, 'Page limit exceeded');\n        return allHistoryOrders[page];\n    }\n\n    // Do not use this function for completing an order\n    function markOrderProgress(uint orderId, string memory progress, Phase phase) public {\n        require(allActiveOrders[orderId].exist, \"Order ID does not exist\");\n        allActiveOrders[orderId].phase = phase;\n        emit MarkOrder(orderId, progress, block.timestamp);\n    }\n\n    function completeOrder(uint orderId) public {\n        require(allActiveOrders[orderId].exist, \"Order ID does not exist\");\n        require(allActiveOrders[orderId].phase == Phase.DISTRIBUTED, \"Order hasn't been distributed\");\n        // Finding index of orderId in _listOfOrders\n        uint index = 0;\n        for(uint i = 0; i < _listOfOrders.length; i++) {\n            if(_listOfOrders[i] == orderId) {\n                index = i;\n                break;\n            }\n        }\n        // Pushes the found index to the latest index of the array\n        // And delete the last index\n        // Also delete from allActiveOrders\n        for (uint i = index; i < _listOfOrders.length - 1; i++){\n            _listOfOrders[i] = _listOfOrders[i + 1];\n        }\n        delete _listOfOrders[_listOfOrders.length - 1];\n        _listOfOrders.length--;\n        Order memory order = allActiveOrders[orderId];\n        order.phase = Phase.SOLD;\n        delete allActiveOrders[orderId];\n        // Add to history of orders\n        // If the latest page array has more than the MAX_PAGES,\n        // Make a new page\n        if(allHistoryOrders[_pages].length >= MAX_PAGES) {\n            _pages += 1;\n        }\n        allHistoryOrders[_pages].push(order);\n        _totalHistoryOrder += 1;\n        emit MarkOrder(orderId, \"Complete\", block.timestamp);\n    }\n}\n",
  "sourcePath": "/Users/darennathanieljanto/Documents/GitHub/fyp-contract/contracts/Orders.sol",
  "compiler": {
    "name": "solc",
    "version": "0.5.16+commit.9c3226ce.Emscripten.clang"
  },
  "schemaVersion": "3.4.15",
  "updatedAt": "2023-09-19T12:51:08.612Z",
  "networkType": "ethereum",
  "devdoc": {
    "methods": {}
  },
  "userdoc": {
    "methods": {}
  }
}