{
  "contractName": "Orders",
  "abi": [
    {
      "anonymous": false,
      "inputs": [
        {
          "indexed": false,
          "internalType": "uint256",
          "name": "productId",
          "type": "uint256"
        },
        {
          "indexed": false,
          "internalType": "string",
          "name": "productName",
          "type": "string"
        },
        {
          "indexed": false,
          "internalType": "uint256",
          "name": "quantity",
          "type": "uint256"
        },
        {
          "indexed": false,
          "internalType": "uint256",
          "name": "timestamp",
          "type": "uint256"
        }
      ],
      "name": "AddOrder",
      "type": "event"
    },
    {
      "anonymous": false,
      "inputs": [
        {
          "indexed": false,
          "internalType": "uint256",
          "name": "orderId",
          "type": "uint256"
        },
        {
          "indexed": false,
          "internalType": "string",
          "name": "progress",
          "type": "string"
        },
        {
          "indexed": false,
          "internalType": "uint256",
          "name": "timestamp",
          "type": "uint256"
        }
      ],
      "name": "MarkOrder",
      "type": "event"
    },
    {
      "anonymous": false,
      "inputs": [
        {
          "indexed": false,
          "internalType": "address",
          "name": "currentOwner",
          "type": "address"
        },
        {
          "indexed": false,
          "internalType": "address",
          "name": "newOwner",
          "type": "address"
        }
      ],
      "name": "TransferOwnership",
      "type": "event"
    },
    {
      "constant": true,
      "inputs": [
        {
          "internalType": "address",
          "name": "checkOwner",
          "type": "address"
        }
      ],
      "name": "isOwner",
      "outputs": [
        {
          "internalType": "bool",
          "name": "",
          "type": "bool"
        }
      ],
      "payable": false,
      "stateMutability": "view",
      "type": "function"
    },
    {
      "constant": true,
      "inputs": [],
      "name": "owner",
      "outputs": [
        {
          "internalType": "address",
          "name": "",
          "type": "address"
        }
      ],
      "payable": false,
      "stateMutability": "view",
      "type": "function"
    },
    {
      "constant": false,
      "inputs": [
        {
          "internalType": "address",
          "name": "newOwner",
          "type": "address"
        }
      ],
      "name": "transferOwnership",
      "outputs": [],
      "payable": false,
      "stateMutability": "nonpayable",
      "type": "function"
    },
    {
      "constant": false,
      "inputs": [
        {
          "components": [
            {
              "internalType": "uint256",
              "name": "productId",
              "type": "uint256"
            },
            {
              "internalType": "string",
              "name": "productName",
              "type": "string"
            },
            {
              "internalType": "bool",
              "name": "exist",
              "type": "bool"
            }
          ],
          "internalType": "struct Products.Product",
          "name": "product",
          "type": "tuple"
        },
        {
          "internalType": "uint256",
          "name": "quantity",
          "type": "uint256"
        }
      ],
      "name": "addOrder",
      "outputs": [],
      "payable": false,
      "stateMutability": "nonpayable",
      "type": "function"
    },
    {
      "constant": true,
      "inputs": [
        {
          "internalType": "uint256",
          "name": "orderId",
          "type": "uint256"
        }
      ],
      "name": "getOrder",
      "outputs": [
        {
          "components": [
            {
              "internalType": "uint256",
              "name": "orderId",
              "type": "uint256"
            },
            {
              "components": [
                {
                  "internalType": "uint256",
                  "name": "productId",
                  "type": "uint256"
                },
                {
                  "internalType": "string",
                  "name": "productName",
                  "type": "string"
                },
                {
                  "internalType": "bool",
                  "name": "exist",
                  "type": "bool"
                }
              ],
              "internalType": "struct Products.Product",
              "name": "product",
              "type": "tuple"
            },
            {
              "internalType": "uint256",
              "name": "quantity",
              "type": "uint256"
            },
            {
              "internalType": "bool",
              "name": "exist",
              "type": "bool"
            },
            {
              "internalType": "enum Orders.Phase",
              "name": "phase",
              "type": "uint8"
            }
          ],
          "internalType": "struct Orders.Order",
          "name": "",
          "type": "tuple"
        }
      ],
      "payable": false,
      "stateMutability": "view",
      "type": "function"
    },
    {
      "constant": true,
      "inputs": [],
      "name": "getAllActiveOrders",
      "outputs": [
        {
          "components": [
            {
              "internalType": "uint256",
              "name": "orderId",
              "type": "uint256"
            },
            {
              "components": [
                {
                  "internalType": "uint256",
                  "name": "productId",
                  "type": "uint256"
                },
                {
                  "internalType": "string",
                  "name": "productName",
                  "type": "string"
                },
                {
                  "internalType": "bool",
                  "name": "exist",
                  "type": "bool"
                }
              ],
              "internalType": "struct Products.Product",
              "name": "product",
              "type": "tuple"
            },
            {
              "internalType": "uint256",
              "name": "quantity",
              "type": "uint256"
            },
            {
              "internalType": "bool",
              "name": "exist",
              "type": "bool"
            },
            {
              "internalType": "enum Orders.Phase",
              "name": "phase",
              "type": "uint8"
            }
          ],
          "internalType": "struct Orders.Order[]",
          "name": "",
          "type": "tuple[]"
        }
      ],
      "payable": false,
      "stateMutability": "view",
      "type": "function"
    },
    {
      "constant": true,
      "inputs": [],
      "name": "getAllHistoryOrders",
      "outputs": [
        {
          "components": [
            {
              "internalType": "uint256",
              "name": "orderId",
              "type": "uint256"
            },
            {
              "components": [
                {
                  "internalType": "uint256",
                  "name": "productId",
                  "type": "uint256"
                },
                {
                  "internalType": "string",
                  "name": "productName",
                  "type": "string"
                },
                {
                  "internalType": "bool",
                  "name": "exist",
                  "type": "bool"
                }
              ],
              "internalType": "struct Products.Product",
              "name": "product",
              "type": "tuple"
            },
            {
              "internalType": "uint256",
              "name": "quantity",
              "type": "uint256"
            },
            {
              "internalType": "bool",
              "name": "exist",
              "type": "bool"
            },
            {
              "internalType": "enum Orders.Phase",
              "name": "phase",
              "type": "uint8"
            }
          ],
          "internalType": "struct Orders.Order[]",
          "name": "",
          "type": "tuple[]"
        }
      ],
      "payable": false,
      "stateMutability": "view",
      "type": "function"
    },
    {
      "constant": true,
      "inputs": [],
      "name": "getTotalPage",
      "outputs": [
        {
          "internalType": "uint256",
          "name": "",
          "type": "uint256"
        }
      ],
      "payable": false,
      "stateMutability": "view",
      "type": "function"
    },
    {
      "constant": true,
      "inputs": [
        {
          "internalType": "uint256",
          "name": "page",
          "type": "uint256"
        }
      ],
      "name": "getPageHistoryOrders",
      "outputs": [
        {
          "components": [
            {
              "internalType": "uint256",
              "name": "orderId",
              "type": "uint256"
            },
            {
              "components": [
                {
                  "internalType": "uint256",
                  "name": "productId",
                  "type": "uint256"
                },
                {
                  "internalType": "string",
                  "name": "productName",
                  "type": "string"
                },
                {
                  "internalType": "bool",
                  "name": "exist",
                  "type": "bool"
                }
              ],
              "internalType": "struct Products.Product",
              "name": "product",
              "type": "tuple"
            },
            {
              "internalType": "uint256",
              "name": "quantity",
              "type": "uint256"
            },
            {
              "internalType": "bool",
              "name": "exist",
              "type": "bool"
            },
            {
              "internalType": "enum Orders.Phase",
              "name": "phase",
              "type": "uint8"
            }
          ],
          "internalType": "struct Orders.Order[]",
          "name": "",
          "type": "tuple[]"
        }
      ],
      "payable": false,
      "stateMutability": "view",
      "type": "function"
    },
    {
      "constant": false,
      "inputs": [
        {
          "internalType": "uint256",
          "name": "orderId",
          "type": "uint256"
        },
        {
          "internalType": "string",
          "name": "progress",
          "type": "string"
        },
        {
          "internalType": "enum Orders.Phase",
          "name": "phase",
          "type": "uint8"
        }
      ],
      "name": "markOrderProgress",
      "outputs": [],
      "payable": false,
      "stateMutability": "nonpayable",
      "type": "function"
    },
    {
      "constant": false,
      "inputs": [
        {
          "internalType": "uint256",
          "name": "orderId",
          "type": "uint256"
        }
      ],
      "name": "completeOrder",
      "outputs": [],
      "payable": false,
      "stateMutability": "nonpayable",
      "type": "function"
    }
  ],
  "bytecode": "0x60806040526000600155600060025560016003556064600455336000806101000a81548173ffffffffffffffffffffffffffffffffffffffff021916908373ffffffffffffffffffffffffffffffffffffffff1602179055507f5c486528ec3e3f0ea91181cff8116f02bfa350e03b8b6f12e00765adbb5af85c60008060009054906101000a900473ffffffffffffffffffffffffffffffffffffffff16604051620000ad929190620000dd565b60405180910390a16200017a565b620000c6816200013e565b82525050565b620000d7816200010a565b82525050565b6000604082019050620000f46000830185620000bb565b620001036020830184620000cc565b9392505050565b600062000117826200011e565b9050919050565b600073ffffffffffffffffffffffffffffffffffffffff82169050919050565b60006200014b8262000152565b9050919050565b60006200015f8262000166565b9050919050565b600062000173826200011e565b9050919050565b6123a2806200018a6000396000f3fe608060405234801561001057600080fd5b50600436106100a95760003560e01c80638da5cb5b116100715780638da5cb5b146101525780639e89980614610170578063ab897ad91461018e578063b6adaaff146101be578063d09ef241146101da578063f2fde38b1461020a576100a9565b80630f4fcdb4146100ae5780632f54bf6e146100ca5780634ef9d956146100fa578063623324d9146101185780638c79315414610136575b600080fd5b6100c860048036036100c39190810190611aac565b610226565b005b6100e460048036036100df9190810190611a06565b610300565b6040516100f19190611fa9565b60405180910390f35b610102610359565b60405161010f9190612066565b60405180910390f35b610120610363565b60405161012d9190611f87565b60405180910390f35b610150600480360361014b9190810190611a2f565b610581565b005b61015a61088e565b6040516101679190611f43565b60405180910390f35b6101786108b3565b6040516101859190611f87565b60405180910390f35b6101a860048036036101a39190810190611a83565b610a49565b6040516101b59190611f87565b60405180910390f35b6101d860048036036101d39190810190611a83565b610c37565b005b6101f460048036036101ef9190810190611a83565b6112c8565b6040516102019190612044565b60405180910390f35b610224600480360361021f9190810190611a06565b61148f565b005b6006600084815260200190815260200160002060050160009054906101000a900460ff16610289576040517f08c379a000000000000000000000000000000000000000000000000000000000815260040161028090612004565b60405180910390fd5b806006600085815260200190815260200160002060050160016101000a81548160ff021916908360048111156102bb57fe5b02179055507f6219b2057b227691c08ab1e3f78fa8e3fdb3768e363c9b602149ca7290535ad48383426040516102f393929190612081565b60405180910390a1505050565b60008173ffffffffffffffffffffffffffffffffffffffff166000809054906101000a900473ffffffffffffffffffffffffffffffffffffffff1673ffffffffffffffffffffffffffffffffffffffff16149050919050565b6000600354905090565b6060806001546040519080825280602002602001820160405280156103a257816020015b61038f6115bb565b8152602001906001900390816103875790505b5090506000600190505b60035481116105795760008090505b600760008381526020019081526020016000208054905081101561056b576007600083815260200190815260200160002081815481106103f757fe5b90600052602060002090600602016040518060a0016040529081600082015481526020016001820160405180606001604052908160008201548152602001600182018054600181600116156101000203166002900480601f0160208091040260200160405190810160405280929190818152602001828054600181600116156101000203166002900480156104cd5780601f106104a2576101008083540402835291602001916104cd565b820191906000526020600020905b8154815290600101906020018083116104b057829003601f168201915b505050505081526020016002820160009054906101000a900460ff1615151515815250508152602001600482015481526020016005820160009054906101000a900460ff161515151581526020016005820160019054906101000a900460ff16600481111561053857fe5b600481111561054357fe5b8152505083828151811061055357fe5b602002602001018190525080806001019150506103bb565b5080806001019150506103ac565b508091505090565b6000809054906101000a900473ffffffffffffffffffffffffffffffffffffffff1673ffffffffffffffffffffffffffffffffffffffff163373ffffffffffffffffffffffffffffffffffffffff1614610610576040517f08c379a000000000000000000000000000000000000000000000000000000000815260040161060790612024565b60405180910390fd5b6040518060a0016040528060025481526020018381526020018281526020016001151581526020016000600481111561064557fe5b815250600660006002548152602001908152602001600020600082015181600001556020820151816001016000820151816000015560208201518160010190805190602001906106969291906115fd565b5060408201518160020160006101000a81548160ff02191690831515021790555050506040820151816004015560608201518160050160006101000a81548160ff02191690831515021790555060808201518160050160016101000a81548160ff0219169083600481111561070757fe5b0217905550905050600560066000600254815260200190815260200160002090806001815401808255809150509060018203906000526020600020906006020160009091929091909150600082015481600001556001820181600101600082015481600001556001820181600101908054600181600116156101000203166002900461079492919061167d565b506002820160009054906101000a900460ff168160020160006101000a81548160ff0219169083151502179055505050600482015481600401556005820160009054906101000a900460ff168160050160006101000a81548160ff0219169083151502179055506005820160019054906101000a900460ff168160050160016101000a81548160ff0219169083600481111561082c57fe5b021790555050505060016002600082825401925050819055507f6fc30226762c150ab6fa88d873497674f593edbd2f9701cf1dc0e4e81fbc2da282600001518360200151834260405161088294939291906120bf565b60405180910390a15050565b6000809054906101000a900473ffffffffffffffffffffffffffffffffffffffff1681565b60606005805480602002602001604051908101604052809291908181526020016000905b82821015610a4057838290600052602060002090600602016040518060a0016040529081600082015481526020016001820160405180606001604052908160008201548152602001600182018054600181600116156101000203166002900480601f0160208091040260200160405190810160405280929190818152602001828054600181600116156101000203166002900480156109b75780601f1061098c576101008083540402835291602001916109b7565b820191906000526020600020905b81548152906001019060200180831161099a57829003601f168201915b505050505081526020016002820160009054906101000a900460ff1615151515815250508152602001600482015481526020016005820160009054906101000a900460ff161515151581526020016005820160019054906101000a900460ff166004811115610a2257fe5b6004811115610a2d57fe5b81525050815260200190600101906108d7565b50505050905090565b6060600354821115610a90576040517f08c379a0000000000000000000000000000000000000000000000000000000008152600401610a8790611fe4565b60405180910390fd5b60076000838152602001908152602001600020805480602002602001604051908101604052809291908181526020016000905b82821015610c2c57838290600052602060002090600602016040518060a0016040529081600082015481526020016001820160405180606001604052908160008201548152602001600182018054600181600116156101000203166002900480601f016020809104026020016040519081016040528092919081815260200182805460018160011615610100020316600290048015610ba35780601f10610b7857610100808354040283529160200191610ba3565b820191906000526020600020905b815481529060010190602001808311610b8657829003601f168201915b505050505081526020016002820160009054906101000a900460ff1615151515815250508152602001600482015481526020016005820160009054906101000a900460ff161515151581526020016005820160019054906101000a900460ff166004811115610c0e57fe5b6004811115610c1957fe5b8152505081526020019060010190610ac3565b505050509050919050565b6006600082815260200190815260200160002060050160009054906101000a900460ff16610c9a576040517f08c379a0000000000000000000000000000000000000000000000000000000008152600401610c9190612004565b60405180910390fd5b60036004811115610ca757fe5b6006600083815260200190815260200160002060050160019054906101000a900460ff166004811115610cd657fe5b14610d16576040517f08c379a0000000000000000000000000000000000000000000000000000000008152600401610d0d90611fc4565b60405180910390fd5b600080905060008090505b600580549050811015610d69578260058281548110610d3c57fe5b9060005260206000209060060201600001541415610d5c57809150610d69565b8080600101915050610d21565b5060008190505b600160058054905003811015610ea95760056001820181548110610d9057fe5b906000526020600020906006020160058281548110610dab57fe5b90600052602060002090600602016000820154816000015560018201816001016000820154816000015560018201816001019080546001816001161561010002031660029004610dfc92919061167d565b506002820160009054906101000a900460ff168160020160006101000a81548160ff0219169083151502179055505050600482015481600401556005820160009054906101000a900460ff168160050160006101000a81548160ff0219169083151502179055506005820160019054906101000a900460ff168160050160016101000a81548160ff02191690836004811115610e9457fe5b02179055509050508080600101915050610d70565b50600560016005805490500381548110610ebf57fe5b906000526020600020906006020160008082016000905560018201600080820160009055600182016000610ef39190611704565b6002820160006101000a81549060ff0219169055505060048201600090556005820160006101000a81549060ff02191690556005820160016101000a81549060ff021916905550506005805480919060019003610f50919061174c565b50610f5961177e565b600660008481526020019081526020016000206040518060a0016040529081600082015481526020016001820160405180606001604052908160008201548152602001600182018054600181600116156101000203166002900480601f0160208091040260200160405190810160405280929190818152602001828054600181600116156101000203166002900480156110345780601f1061100957610100808354040283529160200191611034565b820191906000526020600020905b81548152906001019060200180831161101757829003601f168201915b505050505081526020016002820160009054906101000a900460ff1615151515815250508152602001600482015481526020016005820160009054906101000a900460ff161515151581526020016005820160019054906101000a900460ff16600481111561109f57fe5b60048111156110aa57fe5b8152505090506004816080019060048111156110c257fe5b908160048111156110cf57fe5b81525050600660008481526020019081526020016000206000808201600090556001820160008082016000905560018201600061110c9190611704565b6002820160006101000a81549060ff0219169055505060048201600090556005820160006101000a81549060ff02191690556005820160016101000a81549060ff0219169055505060045460076000600354815260200190815260200160002080549050106111875760016003600082825401925050819055505b6007600060035481526020019081526020016000208190806001815401808255809150509060018203906000526020600020906006020160009091929091909150600082015181600001556020820151816001016000820151816000015560208201518160010190805190602001906112019291906115fd565b5060408201518160020160006101000a81548160ff02191690831515021790555050506040820151816004015560608201518160050160006101000a81548160ff02191690831515021790555060808201518160050160016101000a81548160ff0219169083600481111561127257fe5b0217905550505050600180600082825401925050819055507f6219b2057b227691c08ab1e3f78fa8e3fdb3768e363c9b602149ca7290535ad483426040516112bb92919061210b565b60405180910390a1505050565b6112d061177e565b6006600083815260200190815260200160002060050160009054906101000a900460ff16611333576040517f08c379a000000000000000000000000000000000000000000000000000000000815260040161132a90612004565b60405180910390fd5b600660008381526020019081526020016000206040518060a0016040529081600082015481526020016001820160405180606001604052908160008201548152602001600182018054600181600116156101000203166002900480601f01602080910402602001604051908101604052809291908181526020018280546001816001161561010002031660029004801561140e5780601f106113e35761010080835404028352916020019161140e565b820191906000526020600020905b8154815290600101906020018083116113f157829003601f168201915b505050505081526020016002820160009054906101000a900460ff1615151515815250508152602001600482015481526020016005820160009054906101000a900460ff161515151581526020016005820160019054906101000a900460ff16600481111561147957fe5b600481111561148457fe5b815250509050919050565b6000809054906101000a900473ffffffffffffffffffffffffffffffffffffffff1673ffffffffffffffffffffffffffffffffffffffff163373ffffffffffffffffffffffffffffffffffffffff161461151e576040517f08c379a000000000000000000000000000000000000000000000000000000000815260040161151590612024565b60405180910390fd5b7f5c486528ec3e3f0ea91181cff8116f02bfa350e03b8b6f12e00765adbb5af85c6000809054906101000a900473ffffffffffffffffffffffffffffffffffffffff1682604051611570929190611f5e565b60405180910390a1806000806101000a81548173ffffffffffffffffffffffffffffffffffffffff021916908373ffffffffffffffffffffffffffffffffffffffff16021790555050565b6040518060a00160405280600081526020016115d56117c0565b815260200160008152602001600015158152602001600060048111156115f757fe5b81525090565b828054600181600116156101000203166002900490600052602060002090601f016020900481019282601f1061163e57805160ff191683800117855561166c565b8280016001018555821561166c579182015b8281111561166b578251825591602001919060010190611650565b5b50905061167991906117e3565b5090565b828054600181600116156101000203166002900490600052602060002090601f016020900481019282601f106116b657805485556116f3565b828001600101855582156116f357600052602060002091601f016020900482015b828111156116f25782548255916001019190600101906116d7565b5b50905061170091906117e3565b5090565b50805460018160011615610100020316600290046000825580601f1061172a5750611749565b601f01602090049060005260206000209081019061174891906117e3565b5b50565b815481835581811115611779576006028160060283600052602060002091820191016117789190611808565b5b505050565b6040518060a00160405280600081526020016117986117c0565b815260200160008152602001600015158152602001600060048111156117ba57fe5b81525090565b604051806060016040528060008152602001606081526020016000151581525090565b61180591905b808211156118015760008160009055506001016117e9565b5090565b90565b61188f91905b8082111561188b576000808201600090556001820160008082016000905560018201600061183c9190611704565b6002820160006101000a81549060ff0219169055505060048201600090556005820160006101000a81549060ff02191690556005820160016101000a81549060ff02191690555060060161180e565b5090565b90565b6000813590506118a18161230a565b92915050565b6000813590506118b681612321565b92915050565b6000813590506118cb81612338565b92915050565b600082601f8301126118e257600080fd5b81356118f56118f082612174565b612147565b9150808252602083016020830185838301111561191157600080fd5b61191c8382846122aa565b50505092915050565b600082601f83011261193657600080fd5b8135611949611944826121a0565b612147565b9150808252602083016020830185838301111561196557600080fd5b6119708382846122aa565b50505092915050565b60006060828403121561198b57600080fd5b6119956060612147565b905060006119a5848285016119f1565b600083015250602082013567ffffffffffffffff8111156119c557600080fd5b6119d1848285016118d1565b60208301525060406119e5848285016118a7565b60408301525092915050565b600081359050611a0081612348565b92915050565b600060208284031215611a1857600080fd5b6000611a2684828501611892565b91505092915050565b60008060408385031215611a4257600080fd5b600083013567ffffffffffffffff811115611a5c57600080fd5b611a6885828601611979565b9250506020611a79858286016119f1565b9150509250929050565b600060208284031215611a9557600080fd5b6000611aa3848285016119f1565b91505092915050565b600080600060608486031215611ac157600080fd5b6000611acf868287016119f1565b935050602084013567ffffffffffffffff811115611aec57600080fd5b611af886828701611925565b9250506040611b09868287016118bc565b9150509250925092565b6000611b1f8383611e5f565b905092915050565b611b308161223d565b82525050565b6000611b41826121dc565b611b4b818561220a565b935083602082028501611b5d856121cc565b8060005b85811015611b995784840389528151611b7a8582611b13565b9450611b85836121fd565b925060208a01995050600181019050611b61565b50829750879550505050505092915050565b611bb48161224f565b82525050565b611bc38161224f565b82525050565b611bd281612298565b82525050565b6000611be3826121f2565b611bed818561222c565b9350611bfd8185602086016122b9565b611c06816122ec565b840191505092915050565b6000611c1c826121e7565b611c26818561221b565b9350611c368185602086016122b9565b611c3f816122ec565b840191505092915050565b6000611c55826121e7565b611c5f818561222c565b9350611c6f8185602086016122b9565b611c78816122ec565b840191505092915050565b6000611c9060088361222c565b91507f436f6d706c6574650000000000000000000000000000000000000000000000006000830152602082019050919050565b6000611cd0601d8361222c565b91507f4f72646572206861736e2774206265656e2064697374726962757465640000006000830152602082019050919050565b6000611d1060138361222c565b91507f50616765206c696d6974206578636565646564000000000000000000000000006000830152602082019050919050565b6000611d5060178361222c565b91507f4f7264657220494420646f6573206e6f742065786973740000000000000000006000830152602082019050919050565b6000611d9060338361222c565b91507f546869732066756e6374696f6e206973207265737472696374656420746f207460008301527f686520636f6e74726163742773206f776e6572000000000000000000000000006020830152604082019050919050565b600060a083016000830151611e016000860182611f25565b5060208301518482036020860152611e198282611ed5565b9150506040830151611e2e6040860182611f25565b506060830151611e416060860182611bab565b506080830151611e546080860182611bc9565b508091505092915050565b600060a083016000830151611e776000860182611f25565b5060208301518482036020860152611e8f8282611ed5565b9150506040830151611ea46040860182611f25565b506060830151611eb76060860182611bab565b506080830151611eca6080860182611bc9565b508091505092915050565b6000606083016000830151611eed6000860182611f25565b5060208301518482036020860152611f058282611c11565b9150506040830151611f1a6040860182611bab565b508091505092915050565b611f2e8161228e565b82525050565b611f3d8161228e565b82525050565b6000602082019050611f586000830184611b27565b92915050565b6000604082019050611f736000830185611b27565b611f806020830184611b27565b9392505050565b60006020820190508181036000830152611fa18184611b36565b905092915050565b6000602082019050611fbe6000830184611bba565b92915050565b60006020820190508181036000830152611fdd81611cc3565b9050919050565b60006020820190508181036000830152611ffd81611d03565b9050919050565b6000602082019050818103600083015261201d81611d43565b9050919050565b6000602082019050818103600083015261203d81611d83565b9050919050565b6000602082019050818103600083015261205e8184611de9565b905092915050565b600060208201905061207b6000830184611f34565b92915050565b60006060820190506120966000830186611f34565b81810360208301526120a88185611bd8565b90506120b76040830184611f34565b949350505050565b60006080820190506120d46000830187611f34565b81810360208301526120e68186611c4a565b90506120f56040830185611f34565b6121026060830184611f34565b95945050505050565b60006060820190506121206000830185611f34565b818103602083015261213181611c83565b90506121406040830184611f34565b9392505050565b6000604051905081810181811067ffffffffffffffff8211171561216a57600080fd5b8060405250919050565b600067ffffffffffffffff82111561218b57600080fd5b601f19601f8301169050602081019050919050565b600067ffffffffffffffff8211156121b757600080fd5b601f19601f8301169050602081019050919050565b6000819050602082019050919050565b600081519050919050565b600081519050919050565b600081519050919050565b6000602082019050919050565b600082825260208201905092915050565b600082825260208201905092915050565b600082825260208201905092915050565b60006122488261226e565b9050919050565b60008115159050919050565b6000819050612269826122fd565b919050565b600073ffffffffffffffffffffffffffffffffffffffff82169050919050565b6000819050919050565b60006122a38261225b565b9050919050565b82818337600083830152505050565b60005b838110156122d75780820151818401526020810190506122bc565b838111156122e6576000848401525b50505050565b6000601f19601f8301169050919050565b6005811061230757fe5b50565b6123138161223d565b811461231e57600080fd5b50565b61232a8161224f565b811461233557600080fd5b50565b6005811061234557600080fd5b50565b6123518161228e565b811461235c57600080fd5b5056fea365627a7a72315820d4249ca0cb6f6a2fc01b34d6f2848d53dd7ef84956540dd414f4f9917fecd7156c6578706572696d656e74616cf564736f6c63430005100040",
  "source": "// SPDX-License-Identifier: MIT\npragma solidity 0.5.16;\npragma experimental ABIEncoderV2;\n\nimport \"./Owner.sol\";\nimport \"./Products.sol\";\n\ncontract Orders is Owner {\n    uint private _totalHistoryOrder = 0;\n    uint256 private _counterOrderId = 0;\n    uint256 private _pages = 1;\n    uint private MAX_PAGES = 100;\n    enum Phase { ORDERED, SUPPLIED, MANUFACTURED, DISTRIBUTED, SOLD }\n    struct Order {\n        uint orderId;\n        Products.Product product;\n        uint quantity;\n        bool exist;\n        Phase phase;\n    }\n    Order[] private _listOfOrders;\n    mapping(uint => Order) allActiveOrders;\n    mapping(uint => Order[]) allHistoryOrders;\n\n    event AddOrder(uint productId, string productName, uint quantity, uint256 timestamp);\n    event MarkOrder(uint orderId, string progress, uint256 timestamp);\n\n    function addOrder(Products.Product memory product, uint quantity) public onlyOwner {\n        allActiveOrders[_counterOrderId] = Order({\n            orderId: _counterOrderId,\n            product: product,\n            quantity: quantity,\n            exist: true,\n            phase: Phase.ORDERED\n        });\n        _listOfOrders.push(allActiveOrders[_counterOrderId]);\n        _counterOrderId += 1;\n        emit AddOrder(product.productId, product.productName, quantity, block.timestamp);\n    }\n\n    function getOrder(uint orderId) public view returns (Order memory) {\n        require(allActiveOrders[orderId].exist, \"Order ID does not exist\");\n        return allActiveOrders[orderId];\n    }\n\n    function getAllActiveOrders() public view returns (Order[] memory) {\n        return _listOfOrders;\n    }\n\n    function getAllHistoryOrders() public view returns (Order[] memory) {\n        Order[] memory orders = new Order[](_totalHistoryOrder);\n        for(uint i = 1; i <= _pages; i++) {\n            for(uint j = 0; j < allHistoryOrders[i].length; j++) {\n                orders[j] = allHistoryOrders[i][j];\n            }\n        }\n        return orders;\n    }\n\n    function getTotalPage() public view returns (uint) {\n        return _pages;\n    }\n\n    function getPageHistoryOrders(uint page) public view returns (Order[] memory) {\n        require(page <= _pages, 'Page limit exceeded');\n        return allHistoryOrders[page];\n    }\n\n    // Do not use this function for completing an order\n    function markOrderProgress(uint orderId, string memory progress, Phase phase) public {\n        require(allActiveOrders[orderId].exist, \"Order ID does not exist\");\n        allActiveOrders[orderId].phase = phase;\n        emit MarkOrder(orderId, progress, block.timestamp);\n    }\n\n    function completeOrder(uint orderId) public {\n        require(allActiveOrders[orderId].exist, \"Order ID does not exist\");\n        require(allActiveOrders[orderId].phase == Phase.DISTRIBUTED, \"Order hasn't been distributed\");\n        // Finding index of orderId in _listOfOrders\n        uint index = 0;\n        for(uint i = 0; i < _listOfOrders.length; i++) {\n            if(_listOfOrders[i].orderId == orderId) {\n                index = i;\n                break;\n            }\n        }\n        // Pushes the found index to the latest index of the array\n        // And delete the last index\n        // Also delete from allActiveOrders\n        for (uint i = index; i < _listOfOrders.length - 1; i++){\n            _listOfOrders[i] = _listOfOrders[i + 1];\n        }\n        delete _listOfOrders[_listOfOrders.length - 1];\n        _listOfOrders.length--;\n        Order memory order = allActiveOrders[orderId];\n        order.phase = Phase.SOLD;\n        delete allActiveOrders[orderId];\n        // Add to history of orders\n        // If the latest page array has more than the MAX_PAGES,\n        // Make a new page\n        if(allHistoryOrders[_pages].length >= MAX_PAGES) {\n            _pages += 1;\n        }\n        allHistoryOrders[_pages].push(order);\n        _totalHistoryOrder += 1;\n        emit MarkOrder(orderId, \"Complete\", block.timestamp);\n    }\n}\n",
  "sourcePath": "/Users/darennathanieljanto/Documents/GitHub/fyp-contract/contracts/Orders.sol",
  "compiler": {
    "name": "solc",
    "version": "0.5.16+commit.9c3226ce.Emscripten.clang"
  },
  "schemaVersion": "3.4.15",
  "updatedAt": "2023-09-21T11:01:55.330Z",
  "networkType": "ethereum",
  "devdoc": {
    "methods": {}
  },
  "userdoc": {
    "methods": {}
  }
}