{
  "contractName": "Products",
  "abi": [
    {
      "anonymous": false,
      "inputs": [
        {
          "indexed": false,
          "internalType": "uint256",
          "name": "productId",
          "type": "uint256"
        },
        {
          "indexed": false,
          "internalType": "string",
          "name": "productName",
          "type": "string"
        },
        {
          "indexed": false,
          "internalType": "uint256",
          "name": "timestamp",
          "type": "uint256"
        }
      ],
      "name": "AddProduct",
      "type": "event"
    },
    {
      "anonymous": false,
      "inputs": [
        {
          "indexed": false,
          "internalType": "uint256",
          "name": "productId",
          "type": "uint256"
        },
        {
          "indexed": false,
          "internalType": "string",
          "name": "productName",
          "type": "string"
        },
        {
          "indexed": false,
          "internalType": "uint256",
          "name": "timestamp",
          "type": "uint256"
        }
      ],
      "name": "DeleteProduct",
      "type": "event"
    },
    {
      "anonymous": false,
      "inputs": [
        {
          "indexed": false,
          "internalType": "address",
          "name": "currentOwner",
          "type": "address"
        },
        {
          "indexed": false,
          "internalType": "address",
          "name": "newOwner",
          "type": "address"
        }
      ],
      "name": "TransferOwnership",
      "type": "event"
    },
    {
      "constant": true,
      "inputs": [
        {
          "internalType": "address",
          "name": "checkOwner",
          "type": "address"
        }
      ],
      "name": "isOwner",
      "outputs": [
        {
          "internalType": "bool",
          "name": "",
          "type": "bool"
        }
      ],
      "payable": false,
      "stateMutability": "view",
      "type": "function"
    },
    {
      "constant": true,
      "inputs": [],
      "name": "owner",
      "outputs": [
        {
          "internalType": "address",
          "name": "",
          "type": "address"
        }
      ],
      "payable": false,
      "stateMutability": "view",
      "type": "function"
    },
    {
      "constant": false,
      "inputs": [
        {
          "internalType": "address",
          "name": "newOwner",
          "type": "address"
        }
      ],
      "name": "transferOwnership",
      "outputs": [],
      "payable": false,
      "stateMutability": "nonpayable",
      "type": "function"
    },
    {
      "constant": false,
      "inputs": [
        {
          "internalType": "uint256",
          "name": "productId",
          "type": "uint256"
        },
        {
          "internalType": "string",
          "name": "productName",
          "type": "string"
        }
      ],
      "name": "addProduct",
      "outputs": [],
      "payable": false,
      "stateMutability": "nonpayable",
      "type": "function"
    },
    {
      "constant": true,
      "inputs": [
        {
          "internalType": "uint256",
          "name": "productId",
          "type": "uint256"
        }
      ],
      "name": "getProduct",
      "outputs": [
        {
          "components": [
            {
              "internalType": "uint256",
              "name": "productId",
              "type": "uint256"
            },
            {
              "internalType": "string",
              "name": "productName",
              "type": "string"
            },
            {
              "internalType": "bool",
              "name": "exist",
              "type": "bool"
            }
          ],
          "internalType": "struct Products.Product",
          "name": "",
          "type": "tuple"
        }
      ],
      "payable": false,
      "stateMutability": "view",
      "type": "function"
    },
    {
      "constant": true,
      "inputs": [],
      "name": "getAllProducts",
      "outputs": [
        {
          "components": [
            {
              "internalType": "uint256",
              "name": "productId",
              "type": "uint256"
            },
            {
              "internalType": "string",
              "name": "productName",
              "type": "string"
            },
            {
              "internalType": "bool",
              "name": "exist",
              "type": "bool"
            }
          ],
          "internalType": "struct Products.Product[]",
          "name": "",
          "type": "tuple[]"
        }
      ],
      "payable": false,
      "stateMutability": "view",
      "type": "function"
    },
    {
      "constant": false,
      "inputs": [
        {
          "internalType": "uint256",
          "name": "productId",
          "type": "uint256"
        }
      ],
      "name": "deleteProduct",
      "outputs": [],
      "payable": false,
      "stateMutability": "nonpayable",
      "type": "function"
    }
  ],
  "bytecode": "0x6080604052336000806101000a81548173ffffffffffffffffffffffffffffffffffffffff021916908373ffffffffffffffffffffffffffffffffffffffff1602179055507f5c486528ec3e3f0ea91181cff8116f02bfa350e03b8b6f12e00765adbb5af85c60008060009054906101000a900473ffffffffffffffffffffffffffffffffffffffff1660405162000099929190620000c9565b60405180910390a162000166565b620000b2816200012a565b82525050565b620000c381620000f6565b82525050565b6000604082019050620000e06000830185620000a7565b620000ef6020830184620000b8565b9392505050565b600062000103826200010a565b9050919050565b600073ffffffffffffffffffffffffffffffffffffffff82169050919050565b600062000137826200013e565b9050919050565b60006200014b8262000152565b9050919050565b60006200015f826200010a565b9050919050565b61158280620001766000396000f3fe608060405234801561001057600080fd5b506004361061007d5760003560e01c80638da5cb5b1161005b5780638da5cb5b146100ec578063b9db15b41461010a578063ed90c7b71461013a578063f2fde38b146101565761007d565b806302ee3a521461008257806323cd950a146100a05780632f54bf6e146100bc575b600080fd5b61008a610172565b6040516100979190611271565b60405180910390f35b6100ba60048036036100b59190810190610eae565b610298565b005b6100d660048036036100d19190810190610e5c565b6104e7565b6040516100e39190611293565b60405180910390f35b6100f4610540565b604051610101919061122d565b60405180910390f35b610124600480360361011f9190810190610e85565b610565565b604051610131919061130e565b60405180910390f35b610154600480360361014f9190810190610e85565b6106bc565b005b610170600480360361016b9190810190610e5c565b610a9e565b005b60606001805480602002602001604051908101604052809291908181526020016000905b8282101561028f578382906000526020600020906003020160405180606001604052908160008201548152602001600182018054600181600116156101000203166002900480601f01602080910402602001604051908101604052809291908181526020018280546001816001161561010002031660029004801561025c5780601f106102315761010080835404028352916020019161025c565b820191906000526020600020905b81548152906001019060200180831161023f57829003601f168201915b505050505081526020016002820160009054906101000a900460ff16151515158152505081526020019060010190610196565b50505050905090565b6000809054906101000a900473ffffffffffffffffffffffffffffffffffffffff1673ffffffffffffffffffffffffffffffffffffffff163373ffffffffffffffffffffffffffffffffffffffff1614610327576040517f08c379a000000000000000000000000000000000000000000000000000000000815260040161031e906112ee565b60405180910390fd5b6002600083815260200190815260200160002060020160009054906101000a900460ff161561038b576040517f08c379a0000000000000000000000000000000000000000000000000000000008152600401610382906112ce565b60405180910390fd5b604051806060016040528083815260200182815260200160011515815250600260008481526020019081526020016000206000820151816000015560208201518160010190805190602001906103e2929190610bca565b5060408201518160020160006101000a81548160ff021916908315150217905550905050600160026000848152602001908152602001600020908060018154018082558091505090600182039060005260206000209060030201600090919290919091506000820154816000015560018201816001019080546001816001161561010002031660029004610477929190610c4a565b506002820160009054906101000a900460ff168160020160006101000a81548160ff0219169083151502179055505050507fc1ad708128f641c4f3203646b08e8bb961856206670108eefbbe9b7ef438dda68282426040516104db93929190611330565b60405180910390a15050565b60008173ffffffffffffffffffffffffffffffffffffffff166000809054906101000a900473ffffffffffffffffffffffffffffffffffffffff1673ffffffffffffffffffffffffffffffffffffffff16149050919050565b6000809054906101000a900473ffffffffffffffffffffffffffffffffffffffff1681565b61056d610cd1565b6002600083815260200190815260200160002060020160009054906101000a900460ff166105d0576040517f08c379a00000000000000000000000000000000000000000000000000000000081526004016105c7906112ae565b60405180910390fd5b6002600083815260200190815260200160002060405180606001604052908160008201548152602001600182018054600181600116156101000203166002900480601f0160208091040260200160405190810160405280929190818152602001828054600181600116156101000203166002900480156106915780601f1061066657610100808354040283529160200191610691565b820191906000526020600020905b81548152906001019060200180831161067457829003601f168201915b505050505081526020016002820160009054906101000a900460ff1615151515815250509050919050565b6000809054906101000a900473ffffffffffffffffffffffffffffffffffffffff1673ffffffffffffffffffffffffffffffffffffffff163373ffffffffffffffffffffffffffffffffffffffff161461074b576040517f08c379a0000000000000000000000000000000000000000000000000000000008152600401610742906112ee565b60405180910390fd5b6002600082815260200190815260200160002060020160009054906101000a900460ff166107ae576040517f08c379a00000000000000000000000000000000000000000000000000000000081526004016107a5906112ae565b60405180910390fd5b600080905060008090505b6001805490508110156108015782600182815481106107d457fe5b90600052602060002090600302016000015414156107f457809150610801565b80806001019150506107b9565b5060008190505b60018080549050038110156108be5760018082018154811061082657fe5b90600052602060002090600302016001828154811061084157fe5b90600052602060002090600302016000820154816000015560018201816001019080546001816001161561010002031660029004610880929190610c4a565b506002820160009054906101000a900460ff168160020160006101000a81548160ff0219169083151502179055509050508080600101915050610808565b50600180808054905003815481106108d257fe5b90600052602060002090600302016000808201600090556001820160006108f99190610cf4565b6002820160006101000a81549060ff0219169055505060018054809190600190036109249190610d3c565b5061092d610cd1565b6002600084815260200190815260200160002060405180606001604052908160008201548152602001600182018054600181600116156101000203166002900480601f0160208091040260200160405190810160405280929190818152602001828054600181600116156101000203166002900480156109ee5780601f106109c3576101008083540402835291602001916109ee565b820191906000526020600020905b8154815290600101906020018083116109d157829003601f168201915b505050505081526020016002820160009054906101000a900460ff161515151581525050905060026000848152602001908152602001600020600080820160009055600182016000610a409190610cf4565b6002820160006101000a81549060ff021916905550507f7d9cd29be77b3013b2a47c8b88d80c61f7758e0f4508cefdce6d828f618310748160000151826020015142604051610a919392919061136e565b60405180910390a1505050565b6000809054906101000a900473ffffffffffffffffffffffffffffffffffffffff1673ffffffffffffffffffffffffffffffffffffffff163373ffffffffffffffffffffffffffffffffffffffff1614610b2d576040517f08c379a0000000000000000000000000000000000000000000000000000000008152600401610b24906112ee565b60405180910390fd5b7f5c486528ec3e3f0ea91181cff8116f02bfa350e03b8b6f12e00765adbb5af85c6000809054906101000a900473ffffffffffffffffffffffffffffffffffffffff1682604051610b7f929190611248565b60405180910390a1806000806101000a81548173ffffffffffffffffffffffffffffffffffffffff021916908373ffffffffffffffffffffffffffffffffffffffff16021790555050565b828054600181600116156101000203166002900490600052602060002090601f016020900481019282601f10610c0b57805160ff1916838001178555610c39565b82800160010185558215610c39579182015b82811115610c38578251825591602001919060010190610c1d565b5b509050610c469190610d6e565b5090565b828054600181600116156101000203166002900490600052602060002090601f016020900481019282601f10610c835780548555610cc0565b82800160010185558215610cc057600052602060002091601f016020900482015b82811115610cbf578254825591600101919060010190610ca4565b5b509050610ccd9190610d6e565b5090565b604051806060016040528060008152602001606081526020016000151581525090565b50805460018160011615610100020316600290046000825580601f10610d1a5750610d39565b601f016020900490600052602060002090810190610d389190610d6e565b5b50565b815481835581811115610d6957600302816003028360005260206000209182019101610d689190610d93565b5b505050565b610d9091905b80821115610d8c576000816000905550600101610d74565b5090565b90565b610ddb91905b80821115610dd757600080820160009055600182016000610dba9190610cf4565b6002820160006101000a81549060ff021916905550600301610d99565b5090565b90565b600081359050610ded81611511565b92915050565b600082601f830112610e0457600080fd5b8135610e17610e12826113d9565b6113ac565b91508082526020830160208301858383011115610e3357600080fd5b610e3e8382846114be565b50505092915050565b600081359050610e5681611528565b92915050565b600060208284031215610e6e57600080fd5b6000610e7c84828501610dde565b91505092915050565b600060208284031215610e9757600080fd5b6000610ea584828501610e47565b91505092915050565b60008060408385031215610ec157600080fd5b6000610ecf85828601610e47565b925050602083013567ffffffffffffffff811115610eec57600080fd5b610ef885828601610df3565b9150509250929050565b6000610f0e83836111bf565b905092915050565b610f1f81611476565b82525050565b6000610f3082611415565b610f3a8185611443565b935083602082028501610f4c85611405565b8060005b85811015610f885784840389528151610f698582610f02565b9450610f7483611436565b925060208a01995050600181019050610f50565b50829750879550505050505092915050565b610fa381611488565b82525050565b610fb281611488565b82525050565b6000610fc38261142b565b610fcd8185611465565b9350610fdd8185602086016114cd565b610fe681611500565b840191505092915050565b6000610ffc82611420565b6110068185611454565b93506110168185602086016114cd565b61101f81611500565b840191505092915050565b600061103582611420565b61103f8185611465565b935061104f8185602086016114cd565b61105881611500565b840191505092915050565b6000611070601983611465565b91507f50726f6475637420494420646f6573206e6f74206578697374000000000000006000830152602082019050919050565b60006110b0603283611465565b91507f50726f6475637420494420616c72656164792065786973742c20706c6561736560008301527f2063686f6f736520616e6f7468657220494400000000000000000000000000006020830152604082019050919050565b6000611116603383611465565b91507f546869732066756e6374696f6e206973207265737472696374656420746f207460008301527f686520636f6e74726163742773206f776e6572000000000000000000000000006020830152604082019050919050565b6000606083016000830151611187600086018261120f565b506020830151848203602086015261119f8282610ff1565b91505060408301516111b46040860182610f9a565b508091505092915050565b60006060830160008301516111d7600086018261120f565b50602083015184820360208601526111ef8282610ff1565b91505060408301516112046040860182610f9a565b508091505092915050565b611218816114b4565b82525050565b611227816114b4565b82525050565b60006020820190506112426000830184610f16565b92915050565b600060408201905061125d6000830185610f16565b61126a6020830184610f16565b9392505050565b6000602082019050818103600083015261128b8184610f25565b905092915050565b60006020820190506112a86000830184610fa9565b92915050565b600060208201905081810360008301526112c781611063565b9050919050565b600060208201905081810360008301526112e7816110a3565b9050919050565b6000602082019050818103600083015261130781611109565b9050919050565b60006020820190508181036000830152611328818461116f565b905092915050565b6000606082019050611345600083018661121e565b81810360208301526113578185610fb8565b9050611366604083018461121e565b949350505050565b6000606082019050611383600083018661121e565b8181036020830152611395818561102a565b90506113a4604083018461121e565b949350505050565b6000604051905081810181811067ffffffffffffffff821117156113cf57600080fd5b8060405250919050565b600067ffffffffffffffff8211156113f057600080fd5b601f19601f8301169050602081019050919050565b6000819050602082019050919050565b600081519050919050565b600081519050919050565b600081519050919050565b6000602082019050919050565b600082825260208201905092915050565b600082825260208201905092915050565b600082825260208201905092915050565b600061148182611494565b9050919050565b60008115159050919050565b600073ffffffffffffffffffffffffffffffffffffffff82169050919050565b6000819050919050565b82818337600083830152505050565b60005b838110156114eb5780820151818401526020810190506114d0565b838111156114fa576000848401525b50505050565b6000601f19601f8301169050919050565b61151a81611476565b811461152557600080fd5b50565b611531816114b4565b811461153c57600080fd5b5056fea365627a7a723158204bd80ee91dc8af1d4360a14a57a3cdd4097ef94ce7bcb5c5b1e38a1d529ce6ff6c6578706572696d656e74616cf564736f6c63430005100040",
  "source": "// SPDX-License-Identifier: MIT\npragma solidity 0.5.16;\npragma experimental ABIEncoderV2;\n\nimport \"./Owner.sol\";\n\ncontract Products is Owner {\n    struct Product {\n        uint productId;\n        string productName;\n        bool exist;\n    }\n    Product[] private _listOfProducts;\n    mapping(uint => Product) allProducts;\n\n    event AddProduct(uint productId, string productName, uint256 timestamp);\n    event DeleteProduct(uint productId, string productName, uint256 timestamp);\n\n    function addProduct(uint productId, string memory productName) public onlyOwner {\n        require(!allProducts[productId].exist, \"Product ID already exist, please choose another ID\");\n        allProducts[productId] = Product({\n            productId: productId,\n            productName: productName,\n            exist: true\n        });\n        _listOfProducts.push(allProducts[productId]);\n        emit AddProduct(productId, productName, block.timestamp);\n    }\n\n    function getProduct(uint productId) public view returns (Product memory) {\n        require(allProducts[productId].exist, \"Product ID does not exist\");\n        return allProducts[productId];\n    }\n\n    function getAllProducts() public view returns (Product[] memory) {\n        return _listOfProducts;\n    }\n\n    function deleteProduct(uint productId) public onlyOwner {\n        require(allProducts[productId].exist, \"Product ID does not exist\");\n        uint index = 0;\n        for(uint i = 0; i < _listOfProducts.length; i++) {\n            if(_listOfProducts[i].productId == productId) {\n                index = i;\n                break;\n            }\n        }\n        for (uint i = index; i < _listOfProducts.length - 1; i++){\n            _listOfProducts[i] = _listOfProducts[i + 1];\n        }\n        delete _listOfProducts[_listOfProducts.length - 1];\n        _listOfProducts.length--;\n        Product memory product = allProducts[productId];\n        delete allProducts[productId];\n        emit DeleteProduct(product.productId, product.productName, block.timestamp);\n    }\n}\n",
  "sourcePath": "/Users/darennathanieljanto/Documents/GitHub/fyp-contract/contracts/Products.sol",
  "compiler": {
    "name": "solc",
    "version": "0.5.16+commit.9c3226ce.Emscripten.clang"
  },
  "schemaVersion": "3.4.15",
  "updatedAt": "2023-09-21T11:01:55.316Z",
  "networkType": "ethereum",
  "devdoc": {
    "methods": {}
  },
  "userdoc": {
    "methods": {}
  }
}