{
  "contractName": "Products",
  "abi": [
    {
      "anonymous": false,
      "inputs": [
        {
          "indexed": false,
          "internalType": "uint256",
          "name": "productId",
          "type": "uint256"
        },
        {
          "indexed": false,
          "internalType": "string",
          "name": "productName",
          "type": "string"
        },
        {
          "indexed": false,
          "internalType": "uint256",
          "name": "timestamp",
          "type": "uint256"
        }
      ],
      "name": "AddProduct",
      "type": "event"
    },
    {
      "anonymous": false,
      "inputs": [
        {
          "indexed": false,
          "internalType": "uint256",
          "name": "productId",
          "type": "uint256"
        },
        {
          "indexed": false,
          "internalType": "string",
          "name": "productName",
          "type": "string"
        },
        {
          "indexed": false,
          "internalType": "uint256",
          "name": "timestamp",
          "type": "uint256"
        }
      ],
      "name": "DeleteProduct",
      "type": "event"
    },
    {
      "anonymous": false,
      "inputs": [
        {
          "indexed": false,
          "internalType": "address",
          "name": "currentOwner",
          "type": "address"
        },
        {
          "indexed": false,
          "internalType": "address",
          "name": "newOwner",
          "type": "address"
        }
      ],
      "name": "TransferOwnership",
      "type": "event"
    },
    {
      "constant": true,
      "inputs": [
        {
          "internalType": "address",
          "name": "checkOwner",
          "type": "address"
        }
      ],
      "name": "isOwner",
      "outputs": [
        {
          "internalType": "bool",
          "name": "",
          "type": "bool"
        }
      ],
      "payable": false,
      "stateMutability": "view",
      "type": "function"
    },
    {
      "constant": true,
      "inputs": [],
      "name": "owner",
      "outputs": [
        {
          "internalType": "address",
          "name": "",
          "type": "address"
        }
      ],
      "payable": false,
      "stateMutability": "view",
      "type": "function"
    },
    {
      "constant": false,
      "inputs": [
        {
          "internalType": "address",
          "name": "newOwner",
          "type": "address"
        }
      ],
      "name": "transferOwnership",
      "outputs": [],
      "payable": false,
      "stateMutability": "nonpayable",
      "type": "function"
    },
    {
      "constant": false,
      "inputs": [
        {
          "internalType": "uint256",
          "name": "productId",
          "type": "uint256"
        },
        {
          "internalType": "string",
          "name": "productName",
          "type": "string"
        }
      ],
      "name": "addProduct",
      "outputs": [],
      "payable": false,
      "stateMutability": "nonpayable",
      "type": "function"
    },
    {
      "constant": true,
      "inputs": [
        {
          "internalType": "uint256",
          "name": "productId",
          "type": "uint256"
        }
      ],
      "name": "getProduct",
      "outputs": [
        {
          "components": [
            {
              "internalType": "uint256",
              "name": "productId",
              "type": "uint256"
            },
            {
              "internalType": "string",
              "name": "productName",
              "type": "string"
            },
            {
              "internalType": "bool",
              "name": "exist",
              "type": "bool"
            }
          ],
          "internalType": "struct Products.Product",
          "name": "",
          "type": "tuple"
        }
      ],
      "payable": false,
      "stateMutability": "view",
      "type": "function"
    },
    {
      "constant": true,
      "inputs": [],
      "name": "getAllProducts",
      "outputs": [
        {
          "components": [
            {
              "internalType": "uint256",
              "name": "productId",
              "type": "uint256"
            },
            {
              "internalType": "string",
              "name": "productName",
              "type": "string"
            },
            {
              "internalType": "bool",
              "name": "exist",
              "type": "bool"
            }
          ],
          "internalType": "struct Products.Product[]",
          "name": "",
          "type": "tuple[]"
        }
      ],
      "payable": false,
      "stateMutability": "view",
      "type": "function"
    },
    {
      "constant": false,
      "inputs": [
        {
          "internalType": "uint256",
          "name": "productId",
          "type": "uint256"
        }
      ],
      "name": "deleteProduct",
      "outputs": [],
      "payable": false,
      "stateMutability": "nonpayable",
      "type": "function"
    }
  ],
  "bytecode": "0x6080604052336000806101000a81548173ffffffffffffffffffffffffffffffffffffffff021916908373ffffffffffffffffffffffffffffffffffffffff1602179055507f5c486528ec3e3f0ea91181cff8116f02bfa350e03b8b6f12e00765adbb5af85c60008060009054906101000a900473ffffffffffffffffffffffffffffffffffffffff1660405162000099929190620000c9565b60405180910390a162000166565b620000b2816200012a565b82525050565b620000c381620000f6565b82525050565b6000604082019050620000e06000830185620000a7565b620000ef6020830184620000b8565b9392505050565b600062000103826200010a565b9050919050565b600073ffffffffffffffffffffffffffffffffffffffff82169050919050565b600062000137826200013e565b9050919050565b60006200014b8262000152565b9050919050565b60006200015f826200010a565b9050919050565b61141680620001766000396000f3fe608060405234801561001057600080fd5b506004361061007d5760003560e01c80638da5cb5b1161005b5780638da5cb5b146100ec578063b9db15b41461010a578063ed90c7b71461013a578063f2fde38b146101565761007d565b806302ee3a521461008257806323cd950a146100a05780632f54bf6e146100bc575b600080fd5b61008a610172565b6040516100979190611105565b60405180910390f35b6100ba60048036036100b59190810190610d42565b6102f2565b005b6100d660048036036100d19190810190610cf0565b6104cb565b6040516100e39190611127565b60405180910390f35b6100f4610524565b60405161010191906110c1565b60405180910390f35b610124600480360361011f9190810190610d19565b610549565b60405161013191906111a2565b60405180910390f35b610154600480360361014f9190810190610d19565b6106a0565b005b610170600480360361016b9190810190610cf0565b6109e7565b005b6060806001805490506040519080825280602002602001820160405280156101b457816020015b6101a1610b13565b8152602001906001900390816101995790505b50905060008090505b6001805490508110156102ea5760026000600183815481106101db57fe5b9060005260206000200154815260200190815260200160002060405180606001604052908160008201548152602001600182018054600181600116156101000203166002900480601f0160208091040260200160405190810160405280929190818152602001828054600181600116156101000203166002900480156102a25780601f10610277576101008083540402835291602001916102a2565b820191906000526020600020905b81548152906001019060200180831161028557829003601f168201915b505050505081526020016002820160009054906101000a900460ff1615151515815250508282815181106102d257fe5b602002602001018190525080806001019150506101bd565b508091505090565b6000809054906101000a900473ffffffffffffffffffffffffffffffffffffffff1673ffffffffffffffffffffffffffffffffffffffff163373ffffffffffffffffffffffffffffffffffffffff1614610381576040517f08c379a000000000000000000000000000000000000000000000000000000000815260040161037890611182565b60405180910390fd5b6002600083815260200190815260200160002060020160009054906101000a900460ff16156103e5576040517f08c379a00000000000000000000000000000000000000000000000000000000081526004016103dc90611162565b60405180910390fd5b6040518060600160405280838152602001828152602001600115158152506002600084815260200190815260200160002060008201518160000155602082015181600101908051906020019061043c929190610b36565b5060408201518160020160006101000a81548160ff02191690831515021790555090505060018290806001815401808255809150509060018203906000526020600020016000909192909190915055507fc1ad708128f641c4f3203646b08e8bb961856206670108eefbbe9b7ef438dda68282426040516104bf939291906111c4565b60405180910390a15050565b60008173ffffffffffffffffffffffffffffffffffffffff166000809054906101000a900473ffffffffffffffffffffffffffffffffffffffff1673ffffffffffffffffffffffffffffffffffffffff16149050919050565b6000809054906101000a900473ffffffffffffffffffffffffffffffffffffffff1681565b610551610bb6565b6002600083815260200190815260200160002060020160009054906101000a900460ff166105b4576040517f08c379a00000000000000000000000000000000000000000000000000000000081526004016105ab90611142565b60405180910390fd5b6002600083815260200190815260200160002060405180606001604052908160008201548152602001600182018054600181600116156101000203166002900480601f0160208091040260200160405190810160405280929190818152602001828054600181600116156101000203166002900480156106755780601f1061064a57610100808354040283529160200191610675565b820191906000526020600020905b81548152906001019060200180831161065857829003601f168201915b505050505081526020016002820160009054906101000a900460ff1615151515815250509050919050565b6000809054906101000a900473ffffffffffffffffffffffffffffffffffffffff1673ffffffffffffffffffffffffffffffffffffffff163373ffffffffffffffffffffffffffffffffffffffff161461072f576040517f08c379a000000000000000000000000000000000000000000000000000000000815260040161072690611182565b60405180910390fd5b6002600082815260200190815260200160002060020160009054906101000a900460ff16610792576040517f08c379a000000000000000000000000000000000000000000000000000000000815260040161078990611142565b60405180910390fd5b600080905060008090505b6001805490508110156107de5782600182815481106107b857fe5b906000526020600020015414156107d1578091506107de565b808060010191505061079d565b5060008190505b60018080549050038110156108365760018082018154811061080357fe5b90600052602060002001546001828154811061081b57fe5b906000526020600020018190555080806001019150506107e5565b506001808080549050038154811061084a57fe5b9060005260206000200160009055600180548091906001900361086d9190610bd9565b50610876610bb6565b6002600084815260200190815260200160002060405180606001604052908160008201548152602001600182018054600181600116156101000203166002900480601f0160208091040260200160405190810160405280929190818152602001828054600181600116156101000203166002900480156109375780601f1061090c57610100808354040283529160200191610937565b820191906000526020600020905b81548152906001019060200180831161091a57829003601f168201915b505050505081526020016002820160009054906101000a900460ff1615151515815250509050600260008481526020019081526020016000206000808201600090556001820160006109899190610c05565b6002820160006101000a81549060ff021916905550507f7d9cd29be77b3013b2a47c8b88d80c61f7758e0f4508cefdce6d828f6183107481600001518260200151426040516109da93929190611202565b60405180910390a1505050565b6000809054906101000a900473ffffffffffffffffffffffffffffffffffffffff1673ffffffffffffffffffffffffffffffffffffffff163373ffffffffffffffffffffffffffffffffffffffff1614610a76576040517f08c379a0000000000000000000000000000000000000000000000000000000008152600401610a6d90611182565b60405180910390fd5b7f5c486528ec3e3f0ea91181cff8116f02bfa350e03b8b6f12e00765adbb5af85c6000809054906101000a900473ffffffffffffffffffffffffffffffffffffffff1682604051610ac89291906110dc565b60405180910390a1806000806101000a81548173ffffffffffffffffffffffffffffffffffffffff021916908373ffffffffffffffffffffffffffffffffffffffff16021790555050565b604051806060016040528060008152602001606081526020016000151581525090565b828054600181600116156101000203166002900490600052602060002090601f016020900481019282601f10610b7757805160ff1916838001178555610ba5565b82800160010185558215610ba5579182015b82811115610ba4578251825591602001919060010190610b89565b5b509050610bb29190610c4d565b5090565b604051806060016040528060008152602001606081526020016000151581525090565b815481835581811115610c0057818360005260206000209182019101610bff9190610c4d565b5b505050565b50805460018160011615610100020316600290046000825580601f10610c2b5750610c4a565b601f016020900490600052602060002090810190610c499190610c4d565b5b50565b610c6f91905b80821115610c6b576000816000905550600101610c53565b5090565b90565b600081359050610c81816113a5565b92915050565b600082601f830112610c9857600080fd5b8135610cab610ca68261126d565b611240565b91508082526020830160208301858383011115610cc757600080fd5b610cd2838284611352565b50505092915050565b600081359050610cea816113bc565b92915050565b600060208284031215610d0257600080fd5b6000610d1084828501610c72565b91505092915050565b600060208284031215610d2b57600080fd5b6000610d3984828501610cdb565b91505092915050565b60008060408385031215610d5557600080fd5b6000610d6385828601610cdb565b925050602083013567ffffffffffffffff811115610d8057600080fd5b610d8c85828601610c87565b9150509250929050565b6000610da28383611053565b905092915050565b610db38161130a565b82525050565b6000610dc4826112a9565b610dce81856112d7565b935083602082028501610de085611299565b8060005b85811015610e1c5784840389528151610dfd8582610d96565b9450610e08836112ca565b925060208a01995050600181019050610de4565b50829750879550505050505092915050565b610e378161131c565b82525050565b610e468161131c565b82525050565b6000610e57826112bf565b610e6181856112f9565b9350610e71818560208601611361565b610e7a81611394565b840191505092915050565b6000610e90826112b4565b610e9a81856112e8565b9350610eaa818560208601611361565b610eb381611394565b840191505092915050565b6000610ec9826112b4565b610ed381856112f9565b9350610ee3818560208601611361565b610eec81611394565b840191505092915050565b6000610f046019836112f9565b91507f50726f6475637420494420646f6573206e6f74206578697374000000000000006000830152602082019050919050565b6000610f446032836112f9565b91507f50726f6475637420494420616c72656164792065786973742c20706c6561736560008301527f2063686f6f736520616e6f7468657220494400000000000000000000000000006020830152604082019050919050565b6000610faa6033836112f9565b91507f546869732066756e6374696f6e206973207265737472696374656420746f207460008301527f686520636f6e74726163742773206f776e6572000000000000000000000000006020830152604082019050919050565b600060608301600083015161101b60008601826110a3565b50602083015184820360208601526110338282610e85565b91505060408301516110486040860182610e2e565b508091505092915050565b600060608301600083015161106b60008601826110a3565b50602083015184820360208601526110838282610e85565b91505060408301516110986040860182610e2e565b508091505092915050565b6110ac81611348565b82525050565b6110bb81611348565b82525050565b60006020820190506110d66000830184610daa565b92915050565b60006040820190506110f16000830185610daa565b6110fe6020830184610daa565b9392505050565b6000602082019050818103600083015261111f8184610db9565b905092915050565b600060208201905061113c6000830184610e3d565b92915050565b6000602082019050818103600083015261115b81610ef7565b9050919050565b6000602082019050818103600083015261117b81610f37565b9050919050565b6000602082019050818103600083015261119b81610f9d565b9050919050565b600060208201905081810360008301526111bc8184611003565b905092915050565b60006060820190506111d960008301866110b2565b81810360208301526111eb8185610e4c565b90506111fa60408301846110b2565b949350505050565b600060608201905061121760008301866110b2565b81810360208301526112298185610ebe565b905061123860408301846110b2565b949350505050565b6000604051905081810181811067ffffffffffffffff8211171561126357600080fd5b8060405250919050565b600067ffffffffffffffff82111561128457600080fd5b601f19601f8301169050602081019050919050565b6000819050602082019050919050565b600081519050919050565b600081519050919050565b600081519050919050565b6000602082019050919050565b600082825260208201905092915050565b600082825260208201905092915050565b600082825260208201905092915050565b600061131582611328565b9050919050565b60008115159050919050565b600073ffffffffffffffffffffffffffffffffffffffff82169050919050565b6000819050919050565b82818337600083830152505050565b60005b8381101561137f578082015181840152602081019050611364565b8381111561138e576000848401525b50505050565b6000601f19601f8301169050919050565b6113ae8161130a565b81146113b957600080fd5b50565b6113c581611348565b81146113d057600080fd5b5056fea365627a7a7231582087e92c360e56ed7748a3ae4fd7bbbdc999973390f5e93c77b68fa0cc2b1dbc196c6578706572696d656e74616cf564736f6c63430005100040",
  "source": "// SPDX-License-Identifier: MIT\npragma solidity 0.5.16;\npragma experimental ABIEncoderV2;\n\nimport \"./Owner.sol\";\n\ncontract Products is Owner {\n    uint[] private _listOfProducts;\n    struct Product {\n        uint productId;\n        string productName;\n        bool exist;\n    }\n    mapping(uint => Product) allProducts;\n\n    event AddProduct(uint productId, string productName, uint256 timestamp);\n    event DeleteProduct(uint productId, string productName, uint256 timestamp);\n\n    function addProduct(uint productId, string memory productName) public onlyOwner {\n        require(!allProducts[productId].exist, \"Product ID already exist, please choose another ID\");\n        allProducts[productId] = Product({\n            productId: productId,\n            productName: productName,\n            exist: true\n        });\n        _listOfProducts.push(productId);\n        emit AddProduct(productId, productName, block.timestamp);\n    }\n\n    function getProduct(uint productId) public view returns (Product memory) {\n        require(allProducts[productId].exist, \"Product ID does not exist\");\n        return allProducts[productId];\n    }\n\n    function getAllProducts() public view returns (Product[] memory) {\n        Product[] memory products = new Product[](_listOfProducts.length);\n        for(uint i = 0; i < _listOfProducts.length; i++) {\n            products[i] = allProducts[_listOfProducts[i]];\n        }\n        return products;\n    }\n\n    function deleteProduct(uint productId) public onlyOwner {\n        require(allProducts[productId].exist, \"Product ID does not exist\");\n        uint index = 0;\n        for(uint i = 0; i < _listOfProducts.length; i++) {\n            if(_listOfProducts[i] == productId) {\n                index = i;\n                break;\n            }\n        }\n        for (uint i = index; i < _listOfProducts.length - 1; i++){\n            _listOfProducts[i] = _listOfProducts[i + 1];\n        }\n        delete _listOfProducts[_listOfProducts.length - 1];\n        _listOfProducts.length--;\n        Product memory product = allProducts[productId];\n        delete allProducts[productId];\n        emit DeleteProduct(product.productId, product.productName, block.timestamp);\n    }\n}\n",
  "sourcePath": "/Users/darennathanieljanto/Documents/GitHub/fyp-contract/contracts/Products.sol",
  "compiler": {
    "name": "solc",
    "version": "0.5.16+commit.9c3226ce.Emscripten.clang"
  },
  "schemaVersion": "3.4.15",
  "updatedAt": "2023-09-09T07:32:57.884Z",
  "networkType": "ethereum",
  "devdoc": {
    "methods": {}
  },
  "userdoc": {
    "methods": {}
  }
}