{
  "contractName": "Supplier",
  "abi": [
    {
      "anonymous": false,
      "inputs": [
        {
          "indexed": false,
          "internalType": "uint256",
          "name": "orderId",
          "type": "uint256"
        },
        {
          "indexed": false,
          "internalType": "uint256",
          "name": "timestamp",
          "type": "uint256"
        }
      ],
      "name": "AddSupply",
      "type": "event"
    },
    {
      "anonymous": false,
      "inputs": [
        {
          "indexed": false,
          "internalType": "uint256",
          "name": "orderId",
          "type": "uint256"
        },
        {
          "indexed": false,
          "internalType": "uint256",
          "name": "timestamp",
          "type": "uint256"
        }
      ],
      "name": "DeleteSupply",
      "type": "event"
    },
    {
      "anonymous": false,
      "inputs": [
        {
          "indexed": false,
          "internalType": "address",
          "name": "currentOwner",
          "type": "address"
        },
        {
          "indexed": false,
          "internalType": "address",
          "name": "newOwner",
          "type": "address"
        }
      ],
      "name": "TransferOwnership",
      "type": "event"
    },
    {
      "constant": true,
      "inputs": [
        {
          "internalType": "address",
          "name": "checkOwner",
          "type": "address"
        }
      ],
      "name": "isOwner",
      "outputs": [
        {
          "internalType": "bool",
          "name": "",
          "type": "bool"
        }
      ],
      "payable": false,
      "stateMutability": "view",
      "type": "function"
    },
    {
      "constant": true,
      "inputs": [],
      "name": "owner",
      "outputs": [
        {
          "internalType": "address",
          "name": "",
          "type": "address"
        }
      ],
      "payable": false,
      "stateMutability": "view",
      "type": "function"
    },
    {
      "constant": false,
      "inputs": [
        {
          "internalType": "address",
          "name": "newOwner",
          "type": "address"
        }
      ],
      "name": "transferOwnership",
      "outputs": [],
      "payable": false,
      "stateMutability": "nonpayable",
      "type": "function"
    },
    {
      "constant": true,
      "inputs": [
        {
          "internalType": "address",
          "name": "userAddress",
          "type": "address"
        }
      ],
      "name": "isSupplier",
      "outputs": [
        {
          "internalType": "bool",
          "name": "",
          "type": "bool"
        }
      ],
      "payable": false,
      "stateMutability": "view",
      "type": "function"
    },
    {
      "constant": true,
      "inputs": [],
      "name": "getSuppliers",
      "outputs": [
        {
          "internalType": "address[]",
          "name": "",
          "type": "address[]"
        }
      ],
      "payable": false,
      "stateMutability": "view",
      "type": "function"
    },
    {
      "constant": false,
      "inputs": [
        {
          "components": [
            {
              "internalType": "uint256",
              "name": "orderId",
              "type": "uint256"
            },
            {
              "components": [
                {
                  "internalType": "uint256",
                  "name": "productId",
                  "type": "uint256"
                },
                {
                  "internalType": "string",
                  "name": "productName",
                  "type": "string"
                },
                {
                  "internalType": "bool",
                  "name": "exist",
                  "type": "bool"
                }
              ],
              "internalType": "struct Products.Product",
              "name": "product",
              "type": "tuple"
            },
            {
              "internalType": "uint256",
              "name": "quantity",
              "type": "uint256"
            },
            {
              "internalType": "bool",
              "name": "exist",
              "type": "bool"
            },
            {
              "internalType": "enum Orders.Phase",
              "name": "phase",
              "type": "uint8"
            }
          ],
          "internalType": "struct Orders.Order",
          "name": "order",
          "type": "tuple"
        }
      ],
      "name": "addSupply",
      "outputs": [],
      "payable": false,
      "stateMutability": "nonpayable",
      "type": "function"
    },
    {
      "constant": true,
      "inputs": [
        {
          "internalType": "uint256",
          "name": "orderId",
          "type": "uint256"
        }
      ],
      "name": "getSupply",
      "outputs": [
        {
          "components": [
            {
              "internalType": "uint256",
              "name": "orderId",
              "type": "uint256"
            },
            {
              "components": [
                {
                  "internalType": "uint256",
                  "name": "productId",
                  "type": "uint256"
                },
                {
                  "internalType": "string",
                  "name": "productName",
                  "type": "string"
                },
                {
                  "internalType": "bool",
                  "name": "exist",
                  "type": "bool"
                }
              ],
              "internalType": "struct Products.Product",
              "name": "product",
              "type": "tuple"
            },
            {
              "internalType": "uint256",
              "name": "quantity",
              "type": "uint256"
            },
            {
              "internalType": "bool",
              "name": "exist",
              "type": "bool"
            },
            {
              "internalType": "enum Orders.Phase",
              "name": "phase",
              "type": "uint8"
            }
          ],
          "internalType": "struct Orders.Order",
          "name": "",
          "type": "tuple"
        }
      ],
      "payable": false,
      "stateMutability": "view",
      "type": "function"
    },
    {
      "constant": true,
      "inputs": [],
      "name": "getAllSupplies",
      "outputs": [
        {
          "components": [
            {
              "internalType": "uint256",
              "name": "orderId",
              "type": "uint256"
            },
            {
              "components": [
                {
                  "internalType": "uint256",
                  "name": "productId",
                  "type": "uint256"
                },
                {
                  "internalType": "string",
                  "name": "productName",
                  "type": "string"
                },
                {
                  "internalType": "bool",
                  "name": "exist",
                  "type": "bool"
                }
              ],
              "internalType": "struct Products.Product",
              "name": "product",
              "type": "tuple"
            },
            {
              "internalType": "uint256",
              "name": "quantity",
              "type": "uint256"
            },
            {
              "internalType": "bool",
              "name": "exist",
              "type": "bool"
            },
            {
              "internalType": "enum Orders.Phase",
              "name": "phase",
              "type": "uint8"
            }
          ],
          "internalType": "struct Orders.Order[]",
          "name": "",
          "type": "tuple[]"
        }
      ],
      "payable": false,
      "stateMutability": "view",
      "type": "function"
    },
    {
      "constant": false,
      "inputs": [
        {
          "components": [
            {
              "internalType": "uint256",
              "name": "orderId",
              "type": "uint256"
            },
            {
              "components": [
                {
                  "internalType": "uint256",
                  "name": "productId",
                  "type": "uint256"
                },
                {
                  "internalType": "string",
                  "name": "productName",
                  "type": "string"
                },
                {
                  "internalType": "bool",
                  "name": "exist",
                  "type": "bool"
                }
              ],
              "internalType": "struct Products.Product",
              "name": "product",
              "type": "tuple"
            },
            {
              "internalType": "uint256",
              "name": "quantity",
              "type": "uint256"
            },
            {
              "internalType": "bool",
              "name": "exist",
              "type": "bool"
            },
            {
              "internalType": "enum Orders.Phase",
              "name": "phase",
              "type": "uint8"
            }
          ],
          "internalType": "struct Orders.Order",
          "name": "order",
          "type": "tuple"
        }
      ],
      "name": "deleteSupply",
      "outputs": [],
      "payable": false,
      "stateMutability": "nonpayable",
      "type": "function"
    },
    {
      "constant": false,
      "inputs": [
        {
          "internalType": "address",
          "name": "userAddress",
          "type": "address"
        }
      ],
      "name": "addSupplier",
      "outputs": [],
      "payable": false,
      "stateMutability": "nonpayable",
      "type": "function"
    },
    {
      "constant": false,
      "inputs": [
        {
          "internalType": "address",
          "name": "userAddress",
          "type": "address"
        }
      ],
      "name": "getAllSuppliers",
      "outputs": [],
      "payable": false,
      "stateMutability": "nonpayable",
      "type": "function"
    }
  ],
  "bytecode": "0x6080604052336000806101000a81548173ffffffffffffffffffffffffffffffffffffffff021916908373ffffffffffffffffffffffffffffffffffffffff1602179055507f5c486528ec3e3f0ea91181cff8116f02bfa350e03b8b6f12e00765adbb5af85c60008060009054906101000a900473ffffffffffffffffffffffffffffffffffffffff1660405162000099929190620000c9565b60405180910390a162000166565b620000b2816200012a565b82525050565b620000c381620000f6565b82525050565b6000604082019050620000e06000830185620000a7565b620000ef6020830184620000b8565b9392505050565b600062000103826200010a565b9050919050565b600073ffffffffffffffffffffffffffffffffffffffff82169050919050565b600062000137826200013e565b9050919050565b60006200014b8262000152565b9050919050565b60006200015f826200010a565b9050919050565b61229a80620001766000396000f3fe608060405234801561001057600080fd5b50600436106100a95760003560e01c806343516832116100715780634351683214610150578063463365421461016e57806360e2c7a41461019e5780638da5cb5b146101ba578063f2fde38b146101d8578063f77ee79d146101f4576100a9565b806317df4745146100ae5780631ad83044146100ca57806329d9a0ab146100e85780632f54bf6e1461010457806337a98ccc14610134575b600080fd5b6100c860048036036100c391908101906118a7565b610224565b005b6100d2610400565b6040516100df9190611ed5565b60405180910390f35b61010260048036036100fd91908101906118a7565b610596565b005b61011e600480360361011991908101906118a7565b6108a9565b60405161012b9190611ef7565b60405180910390f35b61014e600480360361014991908101906118d0565b610902565b005b610158610cbd565b6040516101659190611eb3565b60405180910390f35b610188600480360361018391908101906118a7565b610dda565b6040516101959190611ef7565b60405180910390f35b6101b860048036036101b391908101906118d0565b610e30565b005b6101c261110e565b6040516101cf9190611e6f565b60405180910390f35b6101f260048036036101ed91908101906118a7565b611133565b005b61020e60048036036102099190810190611911565b61125f565b60405161021b9190611ff2565b60405180910390f35b6000809054906101000a900473ffffffffffffffffffffffffffffffffffffffff1673ffffffffffffffffffffffffffffffffffffffff163373ffffffffffffffffffffffffffffffffffffffff16146102b3576040517f08c379a00000000000000000000000000000000000000000000000000000000081526004016102aa90611fb2565b60405180910390fd5b600160008273ffffffffffffffffffffffffffffffffffffffff1673ffffffffffffffffffffffffffffffffffffffff16815260200190815260200160002060009054906101000a900460ff1615610340576040517f08c379a000000000000000000000000000000000000000000000000000000000815260040161033790611f32565b60405180910390fd5b60018060008373ffffffffffffffffffffffffffffffffffffffff1673ffffffffffffffffffffffffffffffffffffffff16815260200190815260200160002060006101000a81548160ff02191690831515021790555060028190806001815401808255809150509060018203906000526020600020016000909192909190916101000a81548173ffffffffffffffffffffffffffffffffffffffff021916908373ffffffffffffffffffffffffffffffffffffffff1602179055505050565b60606003805480602002602001604051908101604052809291908181526020016000905b8282101561058d57838290600052602060002090600602016040518060a0016040529081600082015481526020016001820160405180606001604052908160008201548152602001600182018054600181600116156101000203166002900480601f0160208091040260200160405190810160405280929190818152602001828054600181600116156101000203166002900480156105045780601f106104d957610100808354040283529160200191610504565b820191906000526020600020905b8154815290600101906020018083116104e757829003601f168201915b505050505081526020016002820160009054906101000a900460ff1615151515815250508152602001600482015481526020016005820160009054906101000a900460ff161515151581526020016005820160019054906101000a900460ff16600481111561056f57fe5b600481111561057a57fe5b8152505081526020019060010190610424565b50505050905090565b6000809054906101000a900473ffffffffffffffffffffffffffffffffffffffff1673ffffffffffffffffffffffffffffffffffffffff163373ffffffffffffffffffffffffffffffffffffffff1614610625576040517f08c379a000000000000000000000000000000000000000000000000000000000815260040161061c90611fb2565b60405180910390fd5b600160008273ffffffffffffffffffffffffffffffffffffffff1673ffffffffffffffffffffffffffffffffffffffff16815260200190815260200160002060009054906101000a900460ff166106b1576040517f08c379a00000000000000000000000000000000000000000000000000000000081526004016106a890611f12565b60405180910390fd5b600080905060008090505b600280549050811015610749578273ffffffffffffffffffffffffffffffffffffffff16600282815481106106ed57fe5b9060005260206000200160009054906101000a900473ffffffffffffffffffffffffffffffffffffffff1673ffffffffffffffffffffffffffffffffffffffff16141561073c57809150610749565b80806001019150506106bc565b5060008190505b6001600280549050038110156107fd576002600182018154811061077057fe5b9060005260206000200160009054906101000a900473ffffffffffffffffffffffffffffffffffffffff16600282815481106107a857fe5b9060005260206000200160006101000a81548173ffffffffffffffffffffffffffffffffffffffff021916908373ffffffffffffffffffffffffffffffffffffffff1602179055508080600101915050610750565b5060026001600280549050038154811061081357fe5b9060005260206000200160006101000a81549073ffffffffffffffffffffffffffffffffffffffff021916905560028054809190600190036108559190611426565b50600160008373ffffffffffffffffffffffffffffffffffffffff1673ffffffffffffffffffffffffffffffffffffffff16815260200190815260200160002060006101000a81549060ff02191690555050565b60008173ffffffffffffffffffffffffffffffffffffffff166000809054906101000a900473ffffffffffffffffffffffffffffffffffffffff1673ffffffffffffffffffffffffffffffffffffffff16149050919050565b600160003373ffffffffffffffffffffffffffffffffffffffff1673ffffffffffffffffffffffffffffffffffffffff16815260200190815260200160002060009054906101000a900460ff1661098e576040517f08c379a000000000000000000000000000000000000000000000000000000000815260040161098590611fd2565b60405180910390fd5b600460008260000151815260200190815260200160002060050160009054906101000a900460ff166109f5576040517f08c379a00000000000000000000000000000000000000000000000000000000081526004016109ec90611f52565b60405180910390fd5b600080905060008090505b600380549050811015610a4c57826000015160038281548110610a1f57fe5b9060005260206000209060060201600001541415610a3f57809150610a4c565b8080600101915050610a00565b5060008190505b600160038054905003811015610b8c5760036001820181548110610a7357fe5b906000526020600020906006020160038281548110610a8e57fe5b90600052602060002090600602016000820154816000015560018201816001016000820154816000015560018201816001019080546001816001161561010002031660029004610adf929190611452565b506002820160009054906101000a900460ff168160020160006101000a81548160ff0219169083151502179055505050600482015481600401556005820160009054906101000a900460ff168160050160006101000a81548160ff0219169083151502179055506005820160019054906101000a900460ff168160050160016101000a81548160ff02191690836004811115610b7757fe5b02179055509050508080600101915050610a53565b50600360016003805490500381548110610ba257fe5b906000526020600020906006020160008082016000905560018201600080820160009055600182016000610bd691906114d9565b6002820160006101000a81549060ff0219169055505060048201600090556005820160006101000a81549060ff02191690556005820160016101000a81549060ff021916905550506003805480919060019003610c339190611521565b50600460008360000151815260200190815260200160002060008082016000905560018201600080820160009055600182016000610c7191906114d9565b6002820160006101000a81549060ff0219169055505060048201600090556005820160006101000a81549060ff02191690556005820160016101000a81549060ff021916905550505050565b60606000809054906101000a900473ffffffffffffffffffffffffffffffffffffffff1673ffffffffffffffffffffffffffffffffffffffff163373ffffffffffffffffffffffffffffffffffffffff1614610d4e576040517f08c379a0000000000000000000000000000000000000000000000000000000008152600401610d4590611fb2565b60405180910390fd5b6002805480602002602001604051908101604052809291908181526020018280548015610dd057602002820191906000526020600020905b8160009054906101000a900473ffffffffffffffffffffffffffffffffffffffff1673ffffffffffffffffffffffffffffffffffffffff1681526020019060010190808311610d86575b5050505050905090565b6000600160008373ffffffffffffffffffffffffffffffffffffffff1673ffffffffffffffffffffffffffffffffffffffff16815260200190815260200160002060009054906101000a900460ff169050919050565b600160003373ffffffffffffffffffffffffffffffffffffffff1673ffffffffffffffffffffffffffffffffffffffff16815260200190815260200160002060009054906101000a900460ff16610ebc576040517f08c379a0000000000000000000000000000000000000000000000000000000008152600401610eb390611fd2565b60405180910390fd5b600460008260000151815260200190815260200160002060050160009054906101000a900460ff1615610f24576040517f08c379a0000000000000000000000000000000000000000000000000000000008152600401610f1b90611f72565b60405180910390fd5b80600460008360000151815260200190815260200160002060008201518160000155602082015181600101600082015181600001556020820151816001019080519060200190610f75929190611553565b5060408201518160020160006101000a81548160ff02191690831515021790555050506040820151816004015560608201518160050160006101000a81548160ff02191690831515021790555060808201518160050160016101000a81548160ff02191690836004811115610fe657fe5b02179055509050506003819080600181540180825580915050906001820390600052602060002090600602016000909192909190915060008201518160000155602082015181600101600082015181600001556020820151816001019080519060200190611055929190611553565b5060408201518160020160006101000a81548160ff02191690831515021790555050506040820151816004015560608201518160050160006101000a81548160ff02191690831515021790555060808201518160050160016101000a81548160ff021916908360048111156110c657fe5b02179055505050507fbfa50f40323cfdd66e6d82ad6f8fa5580c1facf8ac302be16913b1b47b48a273816000015142604051611103929190612014565b60405180910390a150565b6000809054906101000a900473ffffffffffffffffffffffffffffffffffffffff1681565b6000809054906101000a900473ffffffffffffffffffffffffffffffffffffffff1673ffffffffffffffffffffffffffffffffffffffff163373ffffffffffffffffffffffffffffffffffffffff16146111c2576040517f08c379a00000000000000000000000000000000000000000000000000000000081526004016111b990611fb2565b60405180910390fd5b7f5c486528ec3e3f0ea91181cff8116f02bfa350e03b8b6f12e00765adbb5af85c6000809054906101000a900473ffffffffffffffffffffffffffffffffffffffff1682604051611214929190611e8a565b60405180910390a1806000806101000a81548173ffffffffffffffffffffffffffffffffffffffff021916908373ffffffffffffffffffffffffffffffffffffffff16021790555050565b6112676115d3565b6004600083815260200190815260200160002060050160009054906101000a900460ff166112ca576040517f08c379a00000000000000000000000000000000000000000000000000000000081526004016112c190611f92565b60405180910390fd5b600460008381526020019081526020016000206040518060a0016040529081600082015481526020016001820160405180606001604052908160008201548152602001600182018054600181600116156101000203166002900480601f0160208091040260200160405190810160405280929190818152602001828054600181600116156101000203166002900480156113a55780601f1061137a576101008083540402835291602001916113a5565b820191906000526020600020905b81548152906001019060200180831161138857829003601f168201915b505050505081526020016002820160009054906101000a900460ff1615151515815250508152602001600482015481526020016005820160009054906101000a900460ff161515151581526020016005820160019054906101000a900460ff16600481111561141057fe5b600481111561141b57fe5b815250509050919050565b81548183558181111561144d5781836000526020600020918201910161144c9190611615565b5b505050565b828054600181600116156101000203166002900490600052602060002090601f016020900481019282601f1061148b57805485556114c8565b828001600101855582156114c857600052602060002091601f016020900482015b828111156114c75782548255916001019190600101906114ac565b5b5090506114d59190611615565b5090565b50805460018160011615610100020316600290046000825580601f106114ff575061151e565b601f01602090049060005260206000209081019061151d9190611615565b5b50565b81548183558181111561154e5760060281600602836000526020600020918201910161154d919061163a565b5b505050565b828054600181600116156101000203166002900490600052602060002090601f016020900481019282601f1061159457805160ff19168380011785556115c2565b828001600101855582156115c2579182015b828111156115c15782518255916020019190600101906115a6565b5b5090506115cf9190611615565b5090565b6040518060a00160405280600081526020016115ed6116c4565b8152602001600081526020016000151581526020016000600481111561160f57fe5b81525090565b61163791905b8082111561163357600081600090555060010161161b565b5090565b90565b6116c191905b808211156116bd576000808201600090556001820160008082016000905560018201600061166e91906114d9565b6002820160006101000a81549060ff0219169055505060048201600090556005820160006101000a81549060ff02191690556005820160016101000a81549060ff021916905550600601611640565b5090565b90565b604051806060016040528060008152602001606081526020016000151581525090565b6000813590506116f681612202565b92915050565b60008135905061170b81612219565b92915050565b60008135905061172081612230565b92915050565b600082601f83011261173757600080fd5b813561174a6117458261206a565b61203d565b9150808252602083016020830185838301111561176657600080fd5b6117718382846121a2565b50505092915050565b600060a0828403121561178c57600080fd5b61179660a061203d565b905060006117a684828501611892565b600083015250602082013567ffffffffffffffff8111156117c657600080fd5b6117d28482850161181a565b60208301525060406117e684828501611892565b60408301525060606117fa848285016116fc565b606083015250608061180e84828501611711565b60808301525092915050565b60006060828403121561182c57600080fd5b611836606061203d565b9050600061184684828501611892565b600083015250602082013567ffffffffffffffff81111561186657600080fd5b61187284828501611726565b6020830152506040611886848285016116fc565b60408301525092915050565b6000813590506118a181612240565b92915050565b6000602082840312156118b957600080fd5b60006118c7848285016116e7565b91505092915050565b6000602082840312156118e257600080fd5b600082013567ffffffffffffffff8111156118fc57600080fd5b6119088482850161177a565b91505092915050565b60006020828403121561192357600080fd5b600061193184828501611892565b91505092915050565b60006119468383611966565b60208301905092915050565b600061195e8383611d8b565b905092915050565b61196f81612135565b82525050565b61197e81612135565b82525050565b600061198f826120b6565b61199981856120f1565b93506119a483612096565b8060005b838110156119d55781516119bc888261193a565b97506119c7836120d7565b9250506001810190506119a8565b5085935050505092915050565b60006119ed826120c1565b6119f78185612102565b935083602082028501611a09856120a6565b8060005b85811015611a455784840389528151611a268582611952565b9450611a31836120e4565b925060208a01995050600181019050611a0d565b50829750879550505050505092915050565b611a6081612147565b82525050565b611a6f81612147565b82525050565b611a7e81612190565b82525050565b6000611a8f826120cc565b611a998185612113565b9350611aa98185602086016121b1565b611ab2816121e4565b840191505092915050565b6000611aca602283612124565b91507f5573657220646f6573206e6f74206578697374206173206120537570706c696560008301527f72210000000000000000000000000000000000000000000000000000000000006020830152604082019050919050565b6000611b30601b83612124565b91507f5573657220697320616c7265616479206120537570706c6965722100000000006000830152602082019050919050565b6000611b70601c83612124565b91507f4f7264657220686173206e6f74206265656e20737570706c69656421000000006000830152602082019050919050565b6000611bb0601883612124565b91507f4f7264657220686173206265656e20737570706c6965642100000000000000006000830152602082019050919050565b6000611bf0603283612124565b91507f4f7264657220686173206e6f74206265656e20737570706c696564206f72206960008301527f73206265696e672070726f6365737365642100000000000000000000000000006020830152604082019050919050565b6000611c56603383612124565b91507f546869732066756e6374696f6e206973207265737472696374656420746f207460008301527f686520636f6e74726163742773206f776e6572000000000000000000000000006020830152604082019050919050565b6000611cbc602c83612124565b91507f5468697320616374696f6e206973207265737472696374656420746f2053757060008301527f706c69657273206f6e6c792100000000000000000000000000000000000000006020830152604082019050919050565b600060a083016000830151611d2d6000860182611e51565b5060208301518482036020860152611d458282611e01565b9150506040830151611d5a6040860182611e51565b506060830151611d6d6060860182611a57565b506080830151611d806080860182611a75565b508091505092915050565b600060a083016000830151611da36000860182611e51565b5060208301518482036020860152611dbb8282611e01565b9150506040830151611dd06040860182611e51565b506060830151611de36060860182611a57565b506080830151611df66080860182611a75565b508091505092915050565b6000606083016000830151611e196000860182611e51565b5060208301518482036020860152611e318282611a84565b9150506040830151611e466040860182611a57565b508091505092915050565b611e5a81612186565b82525050565b611e6981612186565b82525050565b6000602082019050611e846000830184611975565b92915050565b6000604082019050611e9f6000830185611975565b611eac6020830184611975565b9392505050565b60006020820190508181036000830152611ecd8184611984565b905092915050565b60006020820190508181036000830152611eef81846119e2565b905092915050565b6000602082019050611f0c6000830184611a66565b92915050565b60006020820190508181036000830152611f2b81611abd565b9050919050565b60006020820190508181036000830152611f4b81611b23565b9050919050565b60006020820190508181036000830152611f6b81611b63565b9050919050565b60006020820190508181036000830152611f8b81611ba3565b9050919050565b60006020820190508181036000830152611fab81611be3565b9050919050565b60006020820190508181036000830152611fcb81611c49565b9050919050565b60006020820190508181036000830152611feb81611caf565b9050919050565b6000602082019050818103600083015261200c8184611d15565b905092915050565b60006040820190506120296000830185611e60565b6120366020830184611e60565b9392505050565b6000604051905081810181811067ffffffffffffffff8211171561206057600080fd5b8060405250919050565b600067ffffffffffffffff82111561208157600080fd5b601f19601f8301169050602081019050919050565b6000819050602082019050919050565b6000819050602082019050919050565b600081519050919050565b600081519050919050565b600081519050919050565b6000602082019050919050565b6000602082019050919050565b600082825260208201905092915050565b600082825260208201905092915050565b600082825260208201905092915050565b600082825260208201905092915050565b600061214082612166565b9050919050565b60008115159050919050565b6000819050612161826121f5565b919050565b600073ffffffffffffffffffffffffffffffffffffffff82169050919050565b6000819050919050565b600061219b82612153565b9050919050565b82818337600083830152505050565b60005b838110156121cf5780820151818401526020810190506121b4565b838111156121de576000848401525b50505050565b6000601f19601f8301169050919050565b600581106121ff57fe5b50565b61220b81612135565b811461221657600080fd5b50565b61222281612147565b811461222d57600080fd5b50565b6005811061223d57600080fd5b50565b61224981612186565b811461225457600080fd5b5056fea365627a7a72315820f54e512299b0511a3ef72e7cd7ef83c31707d95c8eacd3b5e81333922530bb826c6578706572696d656e74616cf564736f6c63430005100040",
  "source": "// SPDX-License-Identifier: MIT\npragma solidity 0.5.16;\npragma experimental ABIEncoderV2;\n\nimport \"../Owner.sol\";\nimport \"../Orders.sol\";\n\ncontract Supplier is Owner {\n  mapping(address => bool) private _suppliers;\n  address[] private _listOfSuppliers;\n  Orders.Order[] private _listOfSuppliedOrders;\n  mapping(uint => Orders.Order) allSuppliedOrders;\n\n  event AddSupply(uint orderId, uint256 timestamp);\n  event DeleteSupply(uint orderId, uint256 timestamp);\n\n  modifier onlySuppliers() {\n    require(\n      _suppliers[msg.sender],\n      \"This action is restricted to Suppliers only!\"\n    );\n    _;\n  }\n\n  function isSupplier(address userAddress) public view returns (bool) {\n    return _suppliers[userAddress];\n  }\n\n  function getSuppliers() public view onlyOwner returns (address[] memory) {\n    return _listOfSuppliers;\n  }\n\n  function addSupply(Orders.Order memory order) public onlySuppliers {\n    require(!allSuppliedOrders[order.orderId].exist, \"Order has been supplied!\");\n    allSuppliedOrders[order.orderId] = order;\n    _listOfSuppliedOrders.push(order);\n    emit AddSupply(order.orderId, block.timestamp);\n  }\n\n  function getSupply(uint orderId) public view returns (Orders.Order memory) {\n    require(allSuppliedOrders[orderId].exist, \"Order has not been supplied or is being processed!\");\n    return allSuppliedOrders[orderId];\n  }\n\n  function getAllSupplies() public view returns (Orders.Order[] memory) {\n    return _listOfSuppliedOrders;\n  }\n\n  function deleteSupply(Orders.Order memory order) public onlySuppliers {\n    require(allSuppliedOrders[order.orderId].exist, \"Order has not been supplied!\");\n    // Finding index of orderId in _listOfSuppliedOrders\n    uint index = 0;\n    for(uint i = 0; i < _listOfSuppliedOrders.length; i++) {\n        if(_listOfSuppliedOrders[i].orderId == order.orderId) {\n            index = i;\n            break;\n        }\n    }\n    // Pushes the found index to the latest index of the array\n    // And delete the last index\n    // Also delete from allSuppliedOrders\n    for (uint i = index; i < _listOfSuppliedOrders.length - 1; i++){\n        _listOfSuppliedOrders[i] = _listOfSuppliedOrders[i + 1];\n    }\n    delete _listOfSuppliedOrders[_listOfSuppliedOrders.length - 1];\n    _listOfSuppliedOrders.length--;\n    delete allSuppliedOrders[order.orderId];\n  }\n\n  function addSupplier(address userAddress) public onlyOwner {\n    require(!_suppliers[userAddress], \"User is already a Supplier!\");\n    _suppliers[userAddress] = true;\n    _listOfSuppliers.push(userAddress);\n  }\n\n  function getAllSuppliers(address userAddress) public onlyOwner {\n    require(_suppliers[userAddress], \"User does not exist as a Supplier!\");\n    // Finding index of orderId in _listOfSuppliers\n    uint index = 0;\n    for(uint i = 0; i < _listOfSuppliers.length; i++) {\n        if(_listOfSuppliers[i] == userAddress) {\n            index = i;\n            break;\n        }\n    }\n    // Pushes the found index to the latest index of the array\n    // And delete the last index\n    // Also delete from allSuppliedOrders\n    for (uint i = index; i < _listOfSuppliers.length - 1; i++){\n        _listOfSuppliers[i] = _listOfSuppliers[i + 1];\n    }\n    delete _listOfSuppliers[_listOfSuppliers.length - 1];\n    _listOfSuppliers.length--;\n    delete _suppliers[userAddress];\n  }\n}\n",
  "sourcePath": "/Users/darennathanieljanto/Documents/GitHub/fyp-contract/contracts/roles/Supplier.sol",
  "compiler": {
    "name": "solc",
    "version": "0.5.16+commit.9c3226ce.Emscripten.clang"
  },
  "schemaVersion": "3.4.15",
  "updatedAt": "2023-09-22T08:35:03.816Z",
  "networkType": "ethereum",
  "devdoc": {
    "methods": {}
  },
  "userdoc": {
    "methods": {}
  }
}