{
  "contractName": "Supplier",
  "abi": [
    {
      "anonymous": false,
      "inputs": [
        {
          "indexed": false,
          "internalType": "uint256",
          "name": "orderId",
          "type": "uint256"
        },
        {
          "indexed": false,
          "internalType": "uint256",
          "name": "timestamp",
          "type": "uint256"
        }
      ],
      "name": "AddSupply",
      "type": "event"
    },
    {
      "anonymous": false,
      "inputs": [
        {
          "indexed": false,
          "internalType": "uint256",
          "name": "orderId",
          "type": "uint256"
        },
        {
          "indexed": false,
          "internalType": "uint256",
          "name": "timestamp",
          "type": "uint256"
        }
      ],
      "name": "DeleteSupply",
      "type": "event"
    },
    {
      "anonymous": false,
      "inputs": [
        {
          "indexed": false,
          "internalType": "address",
          "name": "currentOwner",
          "type": "address"
        },
        {
          "indexed": false,
          "internalType": "address",
          "name": "newOwner",
          "type": "address"
        }
      ],
      "name": "TransferOwnership",
      "type": "event"
    },
    {
      "constant": true,
      "inputs": [
        {
          "internalType": "address",
          "name": "checkOwner",
          "type": "address"
        }
      ],
      "name": "isOwner",
      "outputs": [
        {
          "internalType": "bool",
          "name": "",
          "type": "bool"
        }
      ],
      "payable": false,
      "stateMutability": "view",
      "type": "function"
    },
    {
      "constant": true,
      "inputs": [],
      "name": "owner",
      "outputs": [
        {
          "internalType": "address",
          "name": "",
          "type": "address"
        }
      ],
      "payable": false,
      "stateMutability": "view",
      "type": "function"
    },
    {
      "constant": false,
      "inputs": [
        {
          "internalType": "address",
          "name": "newOwner",
          "type": "address"
        }
      ],
      "name": "transferOwnership",
      "outputs": [],
      "payable": false,
      "stateMutability": "nonpayable",
      "type": "function"
    },
    {
      "constant": false,
      "inputs": [
        {
          "components": [
            {
              "internalType": "uint256",
              "name": "orderId",
              "type": "uint256"
            },
            {
              "components": [
                {
                  "internalType": "uint256",
                  "name": "productId",
                  "type": "uint256"
                },
                {
                  "internalType": "string",
                  "name": "productName",
                  "type": "string"
                },
                {
                  "internalType": "bool",
                  "name": "exist",
                  "type": "bool"
                }
              ],
              "internalType": "struct Products.Product",
              "name": "product",
              "type": "tuple"
            },
            {
              "internalType": "uint256",
              "name": "quantity",
              "type": "uint256"
            },
            {
              "internalType": "bool",
              "name": "exist",
              "type": "bool"
            },
            {
              "internalType": "enum Orders.Phase",
              "name": "phase",
              "type": "uint8"
            }
          ],
          "internalType": "struct Orders.Order",
          "name": "order",
          "type": "tuple"
        }
      ],
      "name": "addSupply",
      "outputs": [],
      "payable": false,
      "stateMutability": "nonpayable",
      "type": "function"
    },
    {
      "constant": true,
      "inputs": [
        {
          "internalType": "uint256",
          "name": "orderId",
          "type": "uint256"
        }
      ],
      "name": "getSupply",
      "outputs": [
        {
          "components": [
            {
              "internalType": "uint256",
              "name": "orderId",
              "type": "uint256"
            },
            {
              "components": [
                {
                  "internalType": "uint256",
                  "name": "productId",
                  "type": "uint256"
                },
                {
                  "internalType": "string",
                  "name": "productName",
                  "type": "string"
                },
                {
                  "internalType": "bool",
                  "name": "exist",
                  "type": "bool"
                }
              ],
              "internalType": "struct Products.Product",
              "name": "product",
              "type": "tuple"
            },
            {
              "internalType": "uint256",
              "name": "quantity",
              "type": "uint256"
            },
            {
              "internalType": "bool",
              "name": "exist",
              "type": "bool"
            },
            {
              "internalType": "enum Orders.Phase",
              "name": "phase",
              "type": "uint8"
            }
          ],
          "internalType": "struct Orders.Order",
          "name": "",
          "type": "tuple"
        }
      ],
      "payable": false,
      "stateMutability": "view",
      "type": "function"
    },
    {
      "constant": true,
      "inputs": [],
      "name": "getAllSupplies",
      "outputs": [
        {
          "components": [
            {
              "internalType": "uint256",
              "name": "orderId",
              "type": "uint256"
            },
            {
              "components": [
                {
                  "internalType": "uint256",
                  "name": "productId",
                  "type": "uint256"
                },
                {
                  "internalType": "string",
                  "name": "productName",
                  "type": "string"
                },
                {
                  "internalType": "bool",
                  "name": "exist",
                  "type": "bool"
                }
              ],
              "internalType": "struct Products.Product",
              "name": "product",
              "type": "tuple"
            },
            {
              "internalType": "uint256",
              "name": "quantity",
              "type": "uint256"
            },
            {
              "internalType": "bool",
              "name": "exist",
              "type": "bool"
            },
            {
              "internalType": "enum Orders.Phase",
              "name": "phase",
              "type": "uint8"
            }
          ],
          "internalType": "struct Orders.Order[]",
          "name": "",
          "type": "tuple[]"
        }
      ],
      "payable": false,
      "stateMutability": "view",
      "type": "function"
    },
    {
      "constant": false,
      "inputs": [
        {
          "components": [
            {
              "internalType": "uint256",
              "name": "orderId",
              "type": "uint256"
            },
            {
              "components": [
                {
                  "internalType": "uint256",
                  "name": "productId",
                  "type": "uint256"
                },
                {
                  "internalType": "string",
                  "name": "productName",
                  "type": "string"
                },
                {
                  "internalType": "bool",
                  "name": "exist",
                  "type": "bool"
                }
              ],
              "internalType": "struct Products.Product",
              "name": "product",
              "type": "tuple"
            },
            {
              "internalType": "uint256",
              "name": "quantity",
              "type": "uint256"
            },
            {
              "internalType": "bool",
              "name": "exist",
              "type": "bool"
            },
            {
              "internalType": "enum Orders.Phase",
              "name": "phase",
              "type": "uint8"
            }
          ],
          "internalType": "struct Orders.Order",
          "name": "order",
          "type": "tuple"
        }
      ],
      "name": "deleteSupply",
      "outputs": [],
      "payable": false,
      "stateMutability": "nonpayable",
      "type": "function"
    },
    {
      "constant": false,
      "inputs": [
        {
          "internalType": "address",
          "name": "userAddress",
          "type": "address"
        }
      ],
      "name": "addSupplier",
      "outputs": [],
      "payable": false,
      "stateMutability": "nonpayable",
      "type": "function"
    },
    {
      "constant": false,
      "inputs": [
        {
          "internalType": "address",
          "name": "userAddress",
          "type": "address"
        }
      ],
      "name": "deleteSupplier",
      "outputs": [],
      "payable": false,
      "stateMutability": "nonpayable",
      "type": "function"
    }
  ],
  "bytecode": "0x6080604052336000806101000a81548173ffffffffffffffffffffffffffffffffffffffff021916908373ffffffffffffffffffffffffffffffffffffffff1602179055507f5c486528ec3e3f0ea91181cff8116f02bfa350e03b8b6f12e00765adbb5af85c60008060009054906101000a900473ffffffffffffffffffffffffffffffffffffffff1660405162000099929190620000c9565b60405180910390a162000166565b620000b2816200012a565b82525050565b620000c381620000f6565b82525050565b6000604082019050620000e06000830185620000a7565b620000ef6020830184620000b8565b9392505050565b600062000103826200010a565b9050919050565b600073ffffffffffffffffffffffffffffffffffffffff82169050919050565b600062000137826200013e565b9050919050565b60006200014b8262000152565b9050919050565b60006200015f826200010a565b9050919050565b611d2580620001766000396000f3fe608060405234801561001057600080fd5b50600436106100935760003560e01c806342c00ce91161006657806342c00ce91461011e57806360e2c7a41461013a5780638da5cb5b14610156578063f2fde38b14610174578063f77ee79d1461019057610093565b806317df4745146100985780631ad83044146100b45780632f54bf6e146100d257806337a98ccc14610102575b600080fd5b6100b260048036036100ad9190810190611498565b6101c0565b005b6100bc610336565b6040516100c991906119b9565b60405180910390f35b6100ec60048036036100e79190810190611498565b6104cc565b6040516100f991906119db565b60405180910390f35b61011c600480360361011791908101906114c1565b610525565b005b61013860048036036101339190810190611498565b6108e0565b005b610154600480360361014f91908101906114c1565b610a4d565b005b61015e610d2b565b60405161016b9190611975565b60405180910390f35b61018e60048036036101899190810190611498565b610d50565b005b6101aa60048036036101a59190810190611502565b610e7c565b6040516101b79190611ab6565b60405180910390f35b6000809054906101000a900473ffffffffffffffffffffffffffffffffffffffff1673ffffffffffffffffffffffffffffffffffffffff163373ffffffffffffffffffffffffffffffffffffffff161461024f576040517f08c379a000000000000000000000000000000000000000000000000000000000815260040161024690611a76565b60405180910390fd5b600160008273ffffffffffffffffffffffffffffffffffffffff1673ffffffffffffffffffffffffffffffffffffffff16815260200190815260200160002060009054906101000a900460ff16156102dc576040517f08c379a00000000000000000000000000000000000000000000000000000000081526004016102d390611a16565b60405180910390fd5b60018060008373ffffffffffffffffffffffffffffffffffffffff1673ffffffffffffffffffffffffffffffffffffffff16815260200190815260200160002060006101000a81548160ff02191690831515021790555050565b60606002805480602002602001604051908101604052809291908181526020016000905b828210156104c357838290600052602060002090600602016040518060a0016040529081600082015481526020016001820160405180606001604052908160008201548152602001600182018054600181600116156101000203166002900480601f01602080910402602001604051908101604052809291908181526020018280546001816001161561010002031660029004801561043a5780601f1061040f5761010080835404028352916020019161043a565b820191906000526020600020905b81548152906001019060200180831161041d57829003601f168201915b505050505081526020016002820160009054906101000a900460ff1615151515815250508152602001600482015481526020016005820160009054906101000a900460ff161515151581526020016005820160019054906101000a900460ff1660048111156104a557fe5b60048111156104b057fe5b815250508152602001906001019061035a565b50505050905090565b60008173ffffffffffffffffffffffffffffffffffffffff166000809054906101000a900473ffffffffffffffffffffffffffffffffffffffff1673ffffffffffffffffffffffffffffffffffffffff16149050919050565b600160003373ffffffffffffffffffffffffffffffffffffffff1673ffffffffffffffffffffffffffffffffffffffff16815260200190815260200160002060009054906101000a900460ff166105b1576040517f08c379a00000000000000000000000000000000000000000000000000000000081526004016105a890611a96565b60405180910390fd5b600360008260000151815260200190815260200160002060050160009054906101000a900460ff16610618576040517f08c379a000000000000000000000000000000000000000000000000000000000815260040161060f90611a36565b60405180910390fd5b600080905060008090505b60028054905081101561066f5782600001516002828154811061064257fe5b90600052602060002090600602016000015414156106625780915061066f565b8080600101915050610623565b5060008190505b6001600280549050038110156107af576002600182018154811061069657fe5b9060005260206000209060060201600282815481106106b157fe5b90600052602060002090600602016000820154816000015560018201816001016000820154816000015560018201816001019080546001816001161561010002031660029004610702929190611043565b506002820160009054906101000a900460ff168160020160006101000a81548160ff0219169083151502179055505050600482015481600401556005820160009054906101000a900460ff168160050160006101000a81548160ff0219169083151502179055506005820160019054906101000a900460ff168160050160016101000a81548160ff0219169083600481111561079a57fe5b02179055509050508080600101915050610676565b506002600160028054905003815481106107c557fe5b9060005260206000209060060201600080820160009055600182016000808201600090556001820160006107f991906110ca565b6002820160006101000a81549060ff0219169055505060048201600090556005820160006101000a81549060ff02191690556005820160016101000a81549060ff0219169055505060028054809190600190036108569190611112565b5060036000836000015181526020019081526020016000206000808201600090556001820160008082016000905560018201600061089491906110ca565b6002820160006101000a81549060ff0219169055505060048201600090556005820160006101000a81549060ff02191690556005820160016101000a81549060ff021916905550505050565b6000809054906101000a900473ffffffffffffffffffffffffffffffffffffffff1673ffffffffffffffffffffffffffffffffffffffff163373ffffffffffffffffffffffffffffffffffffffff161461096f576040517f08c379a000000000000000000000000000000000000000000000000000000000815260040161096690611a76565b60405180910390fd5b600160008273ffffffffffffffffffffffffffffffffffffffff1673ffffffffffffffffffffffffffffffffffffffff16815260200190815260200160002060009054906101000a900460ff166109fb576040517f08c379a00000000000000000000000000000000000000000000000000000000081526004016109f2906119f6565b60405180910390fd5b600160008273ffffffffffffffffffffffffffffffffffffffff1673ffffffffffffffffffffffffffffffffffffffff16815260200190815260200160002060006101000a81549060ff021916905550565b600160003373ffffffffffffffffffffffffffffffffffffffff1673ffffffffffffffffffffffffffffffffffffffff16815260200190815260200160002060009054906101000a900460ff16610ad9576040517f08c379a0000000000000000000000000000000000000000000000000000000008152600401610ad090611a96565b60405180910390fd5b600360008260000151815260200190815260200160002060050160009054906101000a900460ff1615610b41576040517f08c379a0000000000000000000000000000000000000000000000000000000008152600401610b3890611a56565b60405180910390fd5b80600360008360000151815260200190815260200160002060008201518160000155602082015181600101600082015181600001556020820151816001019080519060200190610b92929190611144565b5060408201518160020160006101000a81548160ff02191690831515021790555050506040820151816004015560608201518160050160006101000a81548160ff02191690831515021790555060808201518160050160016101000a81548160ff02191690836004811115610c0357fe5b02179055509050506002819080600181540180825580915050906001820390600052602060002090600602016000909192909190915060008201518160000155602082015181600101600082015181600001556020820151816001019080519060200190610c72929190611144565b5060408201518160020160006101000a81548160ff02191690831515021790555050506040820151816004015560608201518160050160006101000a81548160ff02191690831515021790555060808201518160050160016101000a81548160ff02191690836004811115610ce357fe5b02179055505050507fbfa50f40323cfdd66e6d82ad6f8fa5580c1facf8ac302be16913b1b47b48a273816000015142604051610d20929190611ad8565b60405180910390a150565b6000809054906101000a900473ffffffffffffffffffffffffffffffffffffffff1681565b6000809054906101000a900473ffffffffffffffffffffffffffffffffffffffff1673ffffffffffffffffffffffffffffffffffffffff163373ffffffffffffffffffffffffffffffffffffffff1614610ddf576040517f08c379a0000000000000000000000000000000000000000000000000000000008152600401610dd690611a76565b60405180910390fd5b7f5c486528ec3e3f0ea91181cff8116f02bfa350e03b8b6f12e00765adbb5af85c6000809054906101000a900473ffffffffffffffffffffffffffffffffffffffff1682604051610e31929190611990565b60405180910390a1806000806101000a81548173ffffffffffffffffffffffffffffffffffffffff021916908373ffffffffffffffffffffffffffffffffffffffff16021790555050565b610e846111c4565b6003600083815260200190815260200160002060050160009054906101000a900460ff16610ee7576040517f08c379a0000000000000000000000000000000000000000000000000000000008152600401610ede90611a36565b60405180910390fd5b600360008381526020019081526020016000206040518060a0016040529081600082015481526020016001820160405180606001604052908160008201548152602001600182018054600181600116156101000203166002900480601f016020809104026020016040519081016040528092919081815260200182805460018160011615610100020316600290048015610fc25780601f10610f9757610100808354040283529160200191610fc2565b820191906000526020600020905b815481529060010190602001808311610fa557829003601f168201915b505050505081526020016002820160009054906101000a900460ff1615151515815250508152602001600482015481526020016005820160009054906101000a900460ff161515151581526020016005820160019054906101000a900460ff16600481111561102d57fe5b600481111561103857fe5b815250509050919050565b828054600181600116156101000203166002900490600052602060002090601f016020900481019282601f1061107c57805485556110b9565b828001600101855582156110b957600052602060002091601f016020900482015b828111156110b857825482559160010191906001019061109d565b5b5090506110c69190611206565b5090565b50805460018160011615610100020316600290046000825580601f106110f0575061110f565b601f01602090049060005260206000209081019061110e9190611206565b5b50565b81548183558181111561113f5760060281600602836000526020600020918201910161113e919061122b565b5b505050565b828054600181600116156101000203166002900490600052602060002090601f016020900481019282601f1061118557805160ff19168380011785556111b3565b828001600101855582156111b3579182015b828111156111b2578251825591602001919060010190611197565b5b5090506111c09190611206565b5090565b6040518060a00160405280600081526020016111de6112b5565b8152602001600081526020016000151581526020016000600481111561120057fe5b81525090565b61122891905b8082111561122457600081600090555060010161120c565b5090565b90565b6112b291905b808211156112ae576000808201600090556001820160008082016000905560018201600061125f91906110ca565b6002820160006101000a81549060ff0219169055505060048201600090556005820160006101000a81549060ff02191690556005820160016101000a81549060ff021916905550600601611231565b5090565b90565b604051806060016040528060008152602001606081526020016000151581525090565b6000813590506112e781611c8d565b92915050565b6000813590506112fc81611ca4565b92915050565b60008135905061131181611cbb565b92915050565b600082601f83011261132857600080fd5b813561133b61133682611b2e565b611b01565b9150808252602083016020830185838301111561135757600080fd5b611362838284611c2d565b50505092915050565b600060a0828403121561137d57600080fd5b61138760a0611b01565b9050600061139784828501611483565b600083015250602082013567ffffffffffffffff8111156113b757600080fd5b6113c38482850161140b565b60208301525060406113d784828501611483565b60408301525060606113eb848285016112ed565b60608301525060806113ff84828501611302565b60808301525092915050565b60006060828403121561141d57600080fd5b6114276060611b01565b9050600061143784828501611483565b600083015250602082013567ffffffffffffffff81111561145757600080fd5b61146384828501611317565b6020830152506040611477848285016112ed565b60408301525092915050565b60008135905061149281611ccb565b92915050565b6000602082840312156114aa57600080fd5b60006114b8848285016112d8565b91505092915050565b6000602082840312156114d357600080fd5b600082013567ffffffffffffffff8111156114ed57600080fd5b6114f98482850161136b565b91505092915050565b60006020828403121561151457600080fd5b600061152284828501611483565b91505092915050565b60006115378383611891565b905092915050565b61154881611bc0565b82525050565b600061155982611b6a565b6115638185611b8d565b93508360208202850161157585611b5a565b8060005b858110156115b15784840389528151611592858261152b565b945061159d83611b80565b925060208a01995050600181019050611579565b50829750879550505050505092915050565b6115cc81611bd2565b82525050565b6115db81611bd2565b82525050565b6115ea81611c1b565b82525050565b60006115fb82611b75565b6116058185611b9e565b9350611615818560208601611c3c565b61161e81611c6f565b840191505092915050565b6000611636602283611baf565b91507f5573657220646f6573206e6f74206578697374206173206120537570706c696560008301527f72210000000000000000000000000000000000000000000000000000000000006020830152604082019050919050565b600061169c601b83611baf565b91507f5573657220697320616c7265616479206120537570706c6965722100000000006000830152602082019050919050565b60006116dc601c83611baf565b91507f4f7264657220686173206e6f74206265656e20737570706c69656421000000006000830152602082019050919050565b600061171c601883611baf565b91507f4f7264657220686173206265656e20737570706c6965642100000000000000006000830152602082019050919050565b600061175c603383611baf565b91507f546869732066756e6374696f6e206973207265737472696374656420746f207460008301527f686520636f6e74726163742773206f776e6572000000000000000000000000006020830152604082019050919050565b60006117c2602c83611baf565b91507f5468697320616374696f6e206973207265737472696374656420746f2053757060008301527f706c69657273206f6e6c792100000000000000000000000000000000000000006020830152604082019050919050565b600060a0830160008301516118336000860182611957565b506020830151848203602086015261184b8282611907565b91505060408301516118606040860182611957565b50606083015161187360608601826115c3565b50608083015161188660808601826115e1565b508091505092915050565b600060a0830160008301516118a96000860182611957565b50602083015184820360208601526118c18282611907565b91505060408301516118d66040860182611957565b5060608301516118e960608601826115c3565b5060808301516118fc60808601826115e1565b508091505092915050565b600060608301600083015161191f6000860182611957565b506020830151848203602086015261193782826115f0565b915050604083015161194c60408601826115c3565b508091505092915050565b61196081611c11565b82525050565b61196f81611c11565b82525050565b600060208201905061198a600083018461153f565b92915050565b60006040820190506119a5600083018561153f565b6119b2602083018461153f565b9392505050565b600060208201905081810360008301526119d3818461154e565b905092915050565b60006020820190506119f060008301846115d2565b92915050565b60006020820190508181036000830152611a0f81611629565b9050919050565b60006020820190508181036000830152611a2f8161168f565b9050919050565b60006020820190508181036000830152611a4f816116cf565b9050919050565b60006020820190508181036000830152611a6f8161170f565b9050919050565b60006020820190508181036000830152611a8f8161174f565b9050919050565b60006020820190508181036000830152611aaf816117b5565b9050919050565b60006020820190508181036000830152611ad0818461181b565b905092915050565b6000604082019050611aed6000830185611966565b611afa6020830184611966565b9392505050565b6000604051905081810181811067ffffffffffffffff82111715611b2457600080fd5b8060405250919050565b600067ffffffffffffffff821115611b4557600080fd5b601f19601f8301169050602081019050919050565b6000819050602082019050919050565b600081519050919050565b600081519050919050565b6000602082019050919050565b600082825260208201905092915050565b600082825260208201905092915050565b600082825260208201905092915050565b6000611bcb82611bf1565b9050919050565b60008115159050919050565b6000819050611bec82611c80565b919050565b600073ffffffffffffffffffffffffffffffffffffffff82169050919050565b6000819050919050565b6000611c2682611bde565b9050919050565b82818337600083830152505050565b60005b83811015611c5a578082015181840152602081019050611c3f565b83811115611c69576000848401525b50505050565b6000601f19601f8301169050919050565b60058110611c8a57fe5b50565b611c9681611bc0565b8114611ca157600080fd5b50565b611cad81611bd2565b8114611cb857600080fd5b50565b60058110611cc857600080fd5b50565b611cd481611c11565b8114611cdf57600080fd5b5056fea365627a7a72315820746132610921748ee672ebcf475cea8fd3bc6fdb51a0ecbff1d5aea023a810216c6578706572696d656e74616cf564736f6c63430005100040",
  "source": "// SPDX-License-Identifier: MIT\npragma solidity 0.5.16;\npragma experimental ABIEncoderV2;\n\nimport \"../Owner.sol\";\nimport \"../Orders.sol\";\n\ncontract Supplier is Owner {\n  mapping(address => bool) suppliers;\n  Orders.Order[] private _listOfSuppliedOrders;\n  mapping(uint => Orders.Order) allSuppliedOrders;\n\n  event AddSupply(uint orderId, uint256 timestamp);\n  event DeleteSupply(uint orderId, uint256 timestamp);\n\n  modifier onlySuppliers() {\n    require(\n      suppliers[msg.sender],\n      \"This action is restricted to Suppliers only!\"\n    );\n    _;\n  }\n\n  function addSupply(Orders.Order memory order) public onlySuppliers {\n    require(!allSuppliedOrders[order.orderId].exist, \"Order has been supplied!\");\n    allSuppliedOrders[order.orderId] = order;\n    _listOfSuppliedOrders.push(order);\n    emit AddSupply(order.orderId, block.timestamp);\n  }\n\n  function getSupply(uint orderId) public view returns (Orders.Order memory) {\n    require(allSuppliedOrders[orderId].exist, \"Order has not been supplied!\");\n    return allSuppliedOrders[orderId];\n  }\n\n  function getAllSupplies() public view returns (Orders.Order[] memory) {\n    return _listOfSuppliedOrders;\n  }\n\n  function deleteSupply(Orders.Order memory order) public onlySuppliers {\n    require(allSuppliedOrders[order.orderId].exist, \"Order has not been supplied!\");\n    // Finding index of orderId in _listOfSuppliedOrders\n    uint index = 0;\n    for(uint i = 0; i < _listOfSuppliedOrders.length; i++) {\n        if(_listOfSuppliedOrders[i].orderId == order.orderId) {\n            index = i;\n            break;\n        }\n    }\n    // Pushes the found index to the latest index of the array\n    // And delete the last index\n    // Also delete from allSuppliedOrders\n    for (uint i = index; i < _listOfSuppliedOrders.length - 1; i++){\n        _listOfSuppliedOrders[i] = _listOfSuppliedOrders[i + 1];\n    }\n    delete _listOfSuppliedOrders[_listOfSuppliedOrders.length - 1];\n    _listOfSuppliedOrders.length--;\n    delete allSuppliedOrders[order.orderId];\n  }\n\n  function addSupplier(address userAddress) public onlyOwner {\n    require(!suppliers[userAddress], \"User is already a Supplier!\");\n    suppliers[userAddress] = true;\n  }\n\n  function deleteSupplier(address userAddress) public onlyOwner {\n    require(suppliers[userAddress], \"User does not exist as a Supplier!\");\n    delete suppliers[userAddress];\n  }\n}\n",
  "sourcePath": "/Users/darennathanieljanto/Documents/GitHub/fyp-contract/contracts/roles/Supplier.sol",
  "compiler": {
    "name": "solc",
    "version": "0.5.16+commit.9c3226ce.Emscripten.clang"
  },
  "schemaVersion": "3.4.15",
  "updatedAt": "2023-09-21T11:01:55.326Z",
  "networkType": "ethereum",
  "devdoc": {
    "methods": {}
  },
  "userdoc": {
    "methods": {}
  }
}