{
  "contractName": "Supplier",
  "abi": [
    {
      "anonymous": false,
      "inputs": [
        {
          "indexed": false,
          "internalType": "uint256",
          "name": "orderId",
          "type": "uint256"
        },
        {
          "indexed": false,
          "internalType": "uint256",
          "name": "timestamp",
          "type": "uint256"
        }
      ],
      "name": "AddSupply",
      "type": "event"
    },
    {
      "anonymous": false,
      "inputs": [
        {
          "indexed": false,
          "internalType": "uint256",
          "name": "orderId",
          "type": "uint256"
        },
        {
          "indexed": false,
          "internalType": "uint256",
          "name": "timestamp",
          "type": "uint256"
        }
      ],
      "name": "DeleteSupply",
      "type": "event"
    },
    {
      "anonymous": false,
      "inputs": [
        {
          "indexed": false,
          "internalType": "address",
          "name": "currentOwner",
          "type": "address"
        },
        {
          "indexed": false,
          "internalType": "address",
          "name": "newOwner",
          "type": "address"
        }
      ],
      "name": "TransferOwnership",
      "type": "event"
    },
    {
      "constant": true,
      "inputs": [
        {
          "internalType": "address",
          "name": "checkOwner",
          "type": "address"
        }
      ],
      "name": "isOwner",
      "outputs": [
        {
          "internalType": "bool",
          "name": "",
          "type": "bool"
        }
      ],
      "payable": false,
      "stateMutability": "view",
      "type": "function"
    },
    {
      "constant": true,
      "inputs": [],
      "name": "owner",
      "outputs": [
        {
          "internalType": "address",
          "name": "",
          "type": "address"
        }
      ],
      "payable": false,
      "stateMutability": "view",
      "type": "function"
    },
    {
      "constant": false,
      "inputs": [
        {
          "internalType": "address",
          "name": "newOwner",
          "type": "address"
        }
      ],
      "name": "transferOwnership",
      "outputs": [],
      "payable": false,
      "stateMutability": "nonpayable",
      "type": "function"
    },
    {
      "constant": true,
      "inputs": [
        {
          "internalType": "address",
          "name": "userAddress",
          "type": "address"
        }
      ],
      "name": "isSupplier",
      "outputs": [
        {
          "internalType": "bool",
          "name": "",
          "type": "bool"
        }
      ],
      "payable": false,
      "stateMutability": "view",
      "type": "function"
    },
    {
      "constant": false,
      "inputs": [
        {
          "components": [
            {
              "internalType": "uint256",
              "name": "orderId",
              "type": "uint256"
            },
            {
              "components": [
                {
                  "internalType": "uint256",
                  "name": "productId",
                  "type": "uint256"
                },
                {
                  "internalType": "string",
                  "name": "productName",
                  "type": "string"
                },
                {
                  "internalType": "bool",
                  "name": "exist",
                  "type": "bool"
                }
              ],
              "internalType": "struct Products.Product",
              "name": "product",
              "type": "tuple"
            },
            {
              "internalType": "uint256",
              "name": "quantity",
              "type": "uint256"
            },
            {
              "internalType": "bool",
              "name": "exist",
              "type": "bool"
            },
            {
              "internalType": "enum Orders.Phase",
              "name": "phase",
              "type": "uint8"
            }
          ],
          "internalType": "struct Orders.Order",
          "name": "order",
          "type": "tuple"
        }
      ],
      "name": "addSupply",
      "outputs": [],
      "payable": false,
      "stateMutability": "nonpayable",
      "type": "function"
    },
    {
      "constant": true,
      "inputs": [
        {
          "internalType": "uint256",
          "name": "orderId",
          "type": "uint256"
        }
      ],
      "name": "getSupply",
      "outputs": [
        {
          "components": [
            {
              "internalType": "uint256",
              "name": "orderId",
              "type": "uint256"
            },
            {
              "components": [
                {
                  "internalType": "uint256",
                  "name": "productId",
                  "type": "uint256"
                },
                {
                  "internalType": "string",
                  "name": "productName",
                  "type": "string"
                },
                {
                  "internalType": "bool",
                  "name": "exist",
                  "type": "bool"
                }
              ],
              "internalType": "struct Products.Product",
              "name": "product",
              "type": "tuple"
            },
            {
              "internalType": "uint256",
              "name": "quantity",
              "type": "uint256"
            },
            {
              "internalType": "bool",
              "name": "exist",
              "type": "bool"
            },
            {
              "internalType": "enum Orders.Phase",
              "name": "phase",
              "type": "uint8"
            }
          ],
          "internalType": "struct Orders.Order",
          "name": "",
          "type": "tuple"
        }
      ],
      "payable": false,
      "stateMutability": "view",
      "type": "function"
    },
    {
      "constant": true,
      "inputs": [],
      "name": "getAllSupplies",
      "outputs": [
        {
          "components": [
            {
              "internalType": "uint256",
              "name": "orderId",
              "type": "uint256"
            },
            {
              "components": [
                {
                  "internalType": "uint256",
                  "name": "productId",
                  "type": "uint256"
                },
                {
                  "internalType": "string",
                  "name": "productName",
                  "type": "string"
                },
                {
                  "internalType": "bool",
                  "name": "exist",
                  "type": "bool"
                }
              ],
              "internalType": "struct Products.Product",
              "name": "product",
              "type": "tuple"
            },
            {
              "internalType": "uint256",
              "name": "quantity",
              "type": "uint256"
            },
            {
              "internalType": "bool",
              "name": "exist",
              "type": "bool"
            },
            {
              "internalType": "enum Orders.Phase",
              "name": "phase",
              "type": "uint8"
            }
          ],
          "internalType": "struct Orders.Order[]",
          "name": "",
          "type": "tuple[]"
        }
      ],
      "payable": false,
      "stateMutability": "view",
      "type": "function"
    },
    {
      "constant": false,
      "inputs": [
        {
          "components": [
            {
              "internalType": "uint256",
              "name": "orderId",
              "type": "uint256"
            },
            {
              "components": [
                {
                  "internalType": "uint256",
                  "name": "productId",
                  "type": "uint256"
                },
                {
                  "internalType": "string",
                  "name": "productName",
                  "type": "string"
                },
                {
                  "internalType": "bool",
                  "name": "exist",
                  "type": "bool"
                }
              ],
              "internalType": "struct Products.Product",
              "name": "product",
              "type": "tuple"
            },
            {
              "internalType": "uint256",
              "name": "quantity",
              "type": "uint256"
            },
            {
              "internalType": "bool",
              "name": "exist",
              "type": "bool"
            },
            {
              "internalType": "enum Orders.Phase",
              "name": "phase",
              "type": "uint8"
            }
          ],
          "internalType": "struct Orders.Order",
          "name": "order",
          "type": "tuple"
        }
      ],
      "name": "deleteSupply",
      "outputs": [],
      "payable": false,
      "stateMutability": "nonpayable",
      "type": "function"
    },
    {
      "constant": false,
      "inputs": [
        {
          "internalType": "address",
          "name": "userAddress",
          "type": "address"
        }
      ],
      "name": "addSupplier",
      "outputs": [],
      "payable": false,
      "stateMutability": "nonpayable",
      "type": "function"
    },
    {
      "constant": false,
      "inputs": [
        {
          "internalType": "address",
          "name": "userAddress",
          "type": "address"
        }
      ],
      "name": "deleteSupplier",
      "outputs": [],
      "payable": false,
      "stateMutability": "nonpayable",
      "type": "function"
    }
  ],
  "bytecode": "0x6080604052336000806101000a81548173ffffffffffffffffffffffffffffffffffffffff021916908373ffffffffffffffffffffffffffffffffffffffff1602179055507f5c486528ec3e3f0ea91181cff8116f02bfa350e03b8b6f12e00765adbb5af85c60008060009054906101000a900473ffffffffffffffffffffffffffffffffffffffff1660405162000099929190620000c9565b60405180910390a162000166565b620000b2816200012a565b82525050565b620000c381620000f6565b82525050565b6000604082019050620000e06000830185620000a7565b620000ef6020830184620000b8565b9392505050565b600062000103826200010a565b9050919050565b600073ffffffffffffffffffffffffffffffffffffffff82169050919050565b600062000137826200013e565b9050919050565b60006200014b8262000152565b9050919050565b60006200015f826200010a565b9050919050565b611e3c80620001766000396000f3fe608060405234801561001057600080fd5b506004361061009e5760003560e01c80634633654211610066578063463365421461014557806360e2c7a4146101755780638da5cb5b14610191578063f2fde38b146101af578063f77ee79d146101cb5761009e565b806317df4745146100a35780631ad83044146100bf5780632f54bf6e146100dd57806337a98ccc1461010d57806342c00ce914610129575b600080fd5b6100bd60048036036100b89190810190611529565b6101fb565b005b6100c7610371565b6040516100d49190611ab0565b60405180910390f35b6100f760048036036100f29190810190611529565b610507565b6040516101049190611ad2565b60405180910390f35b61012760048036036101229190810190611552565b610560565b005b610143600480360361013e9190810190611529565b61091b565b005b61015f600480360361015a9190810190611529565b610a88565b60405161016c9190611ad2565b60405180910390f35b61018f600480360361018a9190810190611552565b610ade565b005b610199610dbc565b6040516101a69190611a6c565b60405180910390f35b6101c960048036036101c49190810190611529565b610de1565b005b6101e560048036036101e09190810190611593565b610f0d565b6040516101f29190611bcd565b60405180910390f35b6000809054906101000a900473ffffffffffffffffffffffffffffffffffffffff1673ffffffffffffffffffffffffffffffffffffffff163373ffffffffffffffffffffffffffffffffffffffff161461028a576040517f08c379a000000000000000000000000000000000000000000000000000000000815260040161028190611b8d565b60405180910390fd5b600160008273ffffffffffffffffffffffffffffffffffffffff1673ffffffffffffffffffffffffffffffffffffffff16815260200190815260200160002060009054906101000a900460ff1615610317576040517f08c379a000000000000000000000000000000000000000000000000000000000815260040161030e90611b0d565b60405180910390fd5b60018060008373ffffffffffffffffffffffffffffffffffffffff1673ffffffffffffffffffffffffffffffffffffffff16815260200190815260200160002060006101000a81548160ff02191690831515021790555050565b60606002805480602002602001604051908101604052809291908181526020016000905b828210156104fe57838290600052602060002090600602016040518060a0016040529081600082015481526020016001820160405180606001604052908160008201548152602001600182018054600181600116156101000203166002900480601f0160208091040260200160405190810160405280929190818152602001828054600181600116156101000203166002900480156104755780601f1061044a57610100808354040283529160200191610475565b820191906000526020600020905b81548152906001019060200180831161045857829003601f168201915b505050505081526020016002820160009054906101000a900460ff1615151515815250508152602001600482015481526020016005820160009054906101000a900460ff161515151581526020016005820160019054906101000a900460ff1660048111156104e057fe5b60048111156104eb57fe5b8152505081526020019060010190610395565b50505050905090565b60008173ffffffffffffffffffffffffffffffffffffffff166000809054906101000a900473ffffffffffffffffffffffffffffffffffffffff1673ffffffffffffffffffffffffffffffffffffffff16149050919050565b600160003373ffffffffffffffffffffffffffffffffffffffff1673ffffffffffffffffffffffffffffffffffffffff16815260200190815260200160002060009054906101000a900460ff166105ec576040517f08c379a00000000000000000000000000000000000000000000000000000000081526004016105e390611bad565b60405180910390fd5b600360008260000151815260200190815260200160002060050160009054906101000a900460ff16610653576040517f08c379a000000000000000000000000000000000000000000000000000000000815260040161064a90611b2d565b60405180910390fd5b600080905060008090505b6002805490508110156106aa5782600001516002828154811061067d57fe5b906000526020600020906006020160000154141561069d578091506106aa565b808060010191505061065e565b5060008190505b6001600280549050038110156107ea57600260018201815481106106d157fe5b9060005260206000209060060201600282815481106106ec57fe5b9060005260206000209060060201600082015481600001556001820181600101600082015481600001556001820181600101908054600181600116156101000203166002900461073d9291906110d4565b506002820160009054906101000a900460ff168160020160006101000a81548160ff0219169083151502179055505050600482015481600401556005820160009054906101000a900460ff168160050160006101000a81548160ff0219169083151502179055506005820160019054906101000a900460ff168160050160016101000a81548160ff021916908360048111156107d557fe5b021790555090505080806001019150506106b1565b5060026001600280549050038154811061080057fe5b906000526020600020906006020160008082016000905560018201600080820160009055600182016000610834919061115b565b6002820160006101000a81549060ff0219169055505060048201600090556005820160006101000a81549060ff02191690556005820160016101000a81549060ff02191690555050600280548091906001900361089191906111a3565b506003600083600001518152602001908152602001600020600080820160009055600182016000808201600090556001820160006108cf919061115b565b6002820160006101000a81549060ff0219169055505060048201600090556005820160006101000a81549060ff02191690556005820160016101000a81549060ff021916905550505050565b6000809054906101000a900473ffffffffffffffffffffffffffffffffffffffff1673ffffffffffffffffffffffffffffffffffffffff163373ffffffffffffffffffffffffffffffffffffffff16146109aa576040517f08c379a00000000000000000000000000000000000000000000000000000000081526004016109a190611b8d565b60405180910390fd5b600160008273ffffffffffffffffffffffffffffffffffffffff1673ffffffffffffffffffffffffffffffffffffffff16815260200190815260200160002060009054906101000a900460ff16610a36576040517f08c379a0000000000000000000000000000000000000000000000000000000008152600401610a2d90611aed565b60405180910390fd5b600160008273ffffffffffffffffffffffffffffffffffffffff1673ffffffffffffffffffffffffffffffffffffffff16815260200190815260200160002060006101000a81549060ff021916905550565b6000600160008373ffffffffffffffffffffffffffffffffffffffff1673ffffffffffffffffffffffffffffffffffffffff16815260200190815260200160002060009054906101000a900460ff169050919050565b600160003373ffffffffffffffffffffffffffffffffffffffff1673ffffffffffffffffffffffffffffffffffffffff16815260200190815260200160002060009054906101000a900460ff16610b6a576040517f08c379a0000000000000000000000000000000000000000000000000000000008152600401610b6190611bad565b60405180910390fd5b600360008260000151815260200190815260200160002060050160009054906101000a900460ff1615610bd2576040517f08c379a0000000000000000000000000000000000000000000000000000000008152600401610bc990611b4d565b60405180910390fd5b80600360008360000151815260200190815260200160002060008201518160000155602082015181600101600082015181600001556020820151816001019080519060200190610c239291906111d5565b5060408201518160020160006101000a81548160ff02191690831515021790555050506040820151816004015560608201518160050160006101000a81548160ff02191690831515021790555060808201518160050160016101000a81548160ff02191690836004811115610c9457fe5b02179055509050506002819080600181540180825580915050906001820390600052602060002090600602016000909192909190915060008201518160000155602082015181600101600082015181600001556020820151816001019080519060200190610d039291906111d5565b5060408201518160020160006101000a81548160ff02191690831515021790555050506040820151816004015560608201518160050160006101000a81548160ff02191690831515021790555060808201518160050160016101000a81548160ff02191690836004811115610d7457fe5b02179055505050507fbfa50f40323cfdd66e6d82ad6f8fa5580c1facf8ac302be16913b1b47b48a273816000015142604051610db1929190611bef565b60405180910390a150565b6000809054906101000a900473ffffffffffffffffffffffffffffffffffffffff1681565b6000809054906101000a900473ffffffffffffffffffffffffffffffffffffffff1673ffffffffffffffffffffffffffffffffffffffff163373ffffffffffffffffffffffffffffffffffffffff1614610e70576040517f08c379a0000000000000000000000000000000000000000000000000000000008152600401610e6790611b8d565b60405180910390fd5b7f5c486528ec3e3f0ea91181cff8116f02bfa350e03b8b6f12e00765adbb5af85c6000809054906101000a900473ffffffffffffffffffffffffffffffffffffffff1682604051610ec2929190611a87565b60405180910390a1806000806101000a81548173ffffffffffffffffffffffffffffffffffffffff021916908373ffffffffffffffffffffffffffffffffffffffff16021790555050565b610f15611255565b6003600083815260200190815260200160002060050160009054906101000a900460ff16610f78576040517f08c379a0000000000000000000000000000000000000000000000000000000008152600401610f6f90611b6d565b60405180910390fd5b600360008381526020019081526020016000206040518060a0016040529081600082015481526020016001820160405180606001604052908160008201548152602001600182018054600181600116156101000203166002900480601f0160208091040260200160405190810160405280929190818152602001828054600181600116156101000203166002900480156110535780601f1061102857610100808354040283529160200191611053565b820191906000526020600020905b81548152906001019060200180831161103657829003601f168201915b505050505081526020016002820160009054906101000a900460ff1615151515815250508152602001600482015481526020016005820160009054906101000a900460ff161515151581526020016005820160019054906101000a900460ff1660048111156110be57fe5b60048111156110c957fe5b815250509050919050565b828054600181600116156101000203166002900490600052602060002090601f016020900481019282601f1061110d578054855561114a565b8280016001018555821561114a57600052602060002091601f016020900482015b8281111561114957825482559160010191906001019061112e565b5b5090506111579190611297565b5090565b50805460018160011615610100020316600290046000825580601f1061118157506111a0565b601f01602090049060005260206000209081019061119f9190611297565b5b50565b8154818355818111156111d0576006028160060283600052602060002091820191016111cf91906112bc565b5b505050565b828054600181600116156101000203166002900490600052602060002090601f016020900481019282601f1061121657805160ff1916838001178555611244565b82800160010185558215611244579182015b82811115611243578251825591602001919060010190611228565b5b5090506112519190611297565b5090565b6040518060a001604052806000815260200161126f611346565b8152602001600081526020016000151581526020016000600481111561129157fe5b81525090565b6112b991905b808211156112b557600081600090555060010161129d565b5090565b90565b61134391905b8082111561133f57600080820160009055600182016000808201600090556001820160006112f0919061115b565b6002820160006101000a81549060ff0219169055505060048201600090556005820160006101000a81549060ff02191690556005820160016101000a81549060ff0219169055506006016112c2565b5090565b90565b604051806060016040528060008152602001606081526020016000151581525090565b60008135905061137881611da4565b92915050565b60008135905061138d81611dbb565b92915050565b6000813590506113a281611dd2565b92915050565b600082601f8301126113b957600080fd5b81356113cc6113c782611c45565b611c18565b915080825260208301602083018583830111156113e857600080fd5b6113f3838284611d44565b50505092915050565b600060a0828403121561140e57600080fd5b61141860a0611c18565b9050600061142884828501611514565b600083015250602082013567ffffffffffffffff81111561144857600080fd5b6114548482850161149c565b602083015250604061146884828501611514565b604083015250606061147c8482850161137e565b606083015250608061149084828501611393565b60808301525092915050565b6000606082840312156114ae57600080fd5b6114b86060611c18565b905060006114c884828501611514565b600083015250602082013567ffffffffffffffff8111156114e857600080fd5b6114f4848285016113a8565b60208301525060406115088482850161137e565b60408301525092915050565b60008135905061152381611de2565b92915050565b60006020828403121561153b57600080fd5b600061154984828501611369565b91505092915050565b60006020828403121561156457600080fd5b600082013567ffffffffffffffff81111561157e57600080fd5b61158a848285016113fc565b91505092915050565b6000602082840312156115a557600080fd5b60006115b384828501611514565b91505092915050565b60006115c88383611988565b905092915050565b6115d981611cd7565b82525050565b60006115ea82611c81565b6115f48185611ca4565b93508360208202850161160685611c71565b8060005b85811015611642578484038952815161162385826115bc565b945061162e83611c97565b925060208a0199505060018101905061160a565b50829750879550505050505092915050565b61165d81611ce9565b82525050565b61166c81611ce9565b82525050565b61167b81611d32565b82525050565b600061168c82611c8c565b6116968185611cb5565b93506116a6818560208601611d53565b6116af81611d86565b840191505092915050565b60006116c7602283611cc6565b91507f5573657220646f6573206e6f74206578697374206173206120537570706c696560008301527f72210000000000000000000000000000000000000000000000000000000000006020830152604082019050919050565b600061172d601b83611cc6565b91507f5573657220697320616c7265616479206120537570706c6965722100000000006000830152602082019050919050565b600061176d601c83611cc6565b91507f4f7264657220686173206e6f74206265656e20737570706c69656421000000006000830152602082019050919050565b60006117ad601883611cc6565b91507f4f7264657220686173206265656e20737570706c6965642100000000000000006000830152602082019050919050565b60006117ed603283611cc6565b91507f4f7264657220686173206e6f74206265656e20737570706c696564206f72206960008301527f73206265696e672070726f6365737365642100000000000000000000000000006020830152604082019050919050565b6000611853603383611cc6565b91507f546869732066756e6374696f6e206973207265737472696374656420746f207460008301527f686520636f6e74726163742773206f776e6572000000000000000000000000006020830152604082019050919050565b60006118b9602c83611cc6565b91507f5468697320616374696f6e206973207265737472696374656420746f2053757060008301527f706c69657273206f6e6c792100000000000000000000000000000000000000006020830152604082019050919050565b600060a08301600083015161192a6000860182611a4e565b506020830151848203602086015261194282826119fe565b91505060408301516119576040860182611a4e565b50606083015161196a6060860182611654565b50608083015161197d6080860182611672565b508091505092915050565b600060a0830160008301516119a06000860182611a4e565b50602083015184820360208601526119b882826119fe565b91505060408301516119cd6040860182611a4e565b5060608301516119e06060860182611654565b5060808301516119f36080860182611672565b508091505092915050565b6000606083016000830151611a166000860182611a4e565b5060208301518482036020860152611a2e8282611681565b9150506040830151611a436040860182611654565b508091505092915050565b611a5781611d28565b82525050565b611a6681611d28565b82525050565b6000602082019050611a8160008301846115d0565b92915050565b6000604082019050611a9c60008301856115d0565b611aa960208301846115d0565b9392505050565b60006020820190508181036000830152611aca81846115df565b905092915050565b6000602082019050611ae76000830184611663565b92915050565b60006020820190508181036000830152611b06816116ba565b9050919050565b60006020820190508181036000830152611b2681611720565b9050919050565b60006020820190508181036000830152611b4681611760565b9050919050565b60006020820190508181036000830152611b66816117a0565b9050919050565b60006020820190508181036000830152611b86816117e0565b9050919050565b60006020820190508181036000830152611ba681611846565b9050919050565b60006020820190508181036000830152611bc6816118ac565b9050919050565b60006020820190508181036000830152611be78184611912565b905092915050565b6000604082019050611c046000830185611a5d565b611c116020830184611a5d565b9392505050565b6000604051905081810181811067ffffffffffffffff82111715611c3b57600080fd5b8060405250919050565b600067ffffffffffffffff821115611c5c57600080fd5b601f19601f8301169050602081019050919050565b6000819050602082019050919050565b600081519050919050565b600081519050919050565b6000602082019050919050565b600082825260208201905092915050565b600082825260208201905092915050565b600082825260208201905092915050565b6000611ce282611d08565b9050919050565b60008115159050919050565b6000819050611d0382611d97565b919050565b600073ffffffffffffffffffffffffffffffffffffffff82169050919050565b6000819050919050565b6000611d3d82611cf5565b9050919050565b82818337600083830152505050565b60005b83811015611d71578082015181840152602081019050611d56565b83811115611d80576000848401525b50505050565b6000601f19601f8301169050919050565b60058110611da157fe5b50565b611dad81611cd7565b8114611db857600080fd5b50565b611dc481611ce9565b8114611dcf57600080fd5b50565b60058110611ddf57600080fd5b50565b611deb81611d28565b8114611df657600080fd5b5056fea365627a7a7231582081d48c7bf268c52e7d630993418a563dffb960c2cc0e7da59f27c4c2fad44a656c6578706572696d656e74616cf564736f6c63430005100040",
  "source": "// SPDX-License-Identifier: MIT\npragma solidity 0.5.16;\npragma experimental ABIEncoderV2;\n\nimport \"../Owner.sol\";\nimport \"../Orders.sol\";\n\ncontract Supplier is Owner {\n  mapping(address => bool) private _suppliers;\n  Orders.Order[] private _listOfSuppliedOrders;\n  mapping(uint => Orders.Order) allSuppliedOrders;\n\n  event AddSupply(uint orderId, uint256 timestamp);\n  event DeleteSupply(uint orderId, uint256 timestamp);\n\n  modifier onlySuppliers() {\n    require(\n      _suppliers[msg.sender],\n      \"This action is restricted to Suppliers only!\"\n    );\n    _;\n  }\n\n  function isSupplier(address userAddress) public view returns (bool) {\n    return _suppliers[userAddress];\n  }\n\n  function addSupply(Orders.Order memory order) public onlySuppliers {\n    require(!allSuppliedOrders[order.orderId].exist, \"Order has been supplied!\");\n    allSuppliedOrders[order.orderId] = order;\n    _listOfSuppliedOrders.push(order);\n    emit AddSupply(order.orderId, block.timestamp);\n  }\n\n  function getSupply(uint orderId) public view returns (Orders.Order memory) {\n    require(allSuppliedOrders[orderId].exist, \"Order has not been supplied or is being processed!\");\n    return allSuppliedOrders[orderId];\n  }\n\n  function getAllSupplies() public view returns (Orders.Order[] memory) {\n    return _listOfSuppliedOrders;\n  }\n\n  function deleteSupply(Orders.Order memory order) public onlySuppliers {\n    require(allSuppliedOrders[order.orderId].exist, \"Order has not been supplied!\");\n    // Finding index of orderId in _listOfSuppliedOrders\n    uint index = 0;\n    for(uint i = 0; i < _listOfSuppliedOrders.length; i++) {\n        if(_listOfSuppliedOrders[i].orderId == order.orderId) {\n            index = i;\n            break;\n        }\n    }\n    // Pushes the found index to the latest index of the array\n    // And delete the last index\n    // Also delete from allSuppliedOrders\n    for (uint i = index; i < _listOfSuppliedOrders.length - 1; i++){\n        _listOfSuppliedOrders[i] = _listOfSuppliedOrders[i + 1];\n    }\n    delete _listOfSuppliedOrders[_listOfSuppliedOrders.length - 1];\n    _listOfSuppliedOrders.length--;\n    delete allSuppliedOrders[order.orderId];\n  }\n\n  function addSupplier(address userAddress) public onlyOwner {\n    require(!_suppliers[userAddress], \"User is already a Supplier!\");\n    _suppliers[userAddress] = true;\n  }\n\n  function deleteSupplier(address userAddress) public onlyOwner {\n    require(_suppliers[userAddress], \"User does not exist as a Supplier!\");\n    delete _suppliers[userAddress];\n  }\n}\n",
  "sourcePath": "/Users/darennathanieljanto/Documents/GitHub/fyp-contract/contracts/roles/Supplier.sol",
  "compiler": {
    "name": "solc",
    "version": "0.5.16+commit.9c3226ce.Emscripten.clang"
  },
  "schemaVersion": "3.4.15",
  "updatedAt": "2023-09-22T08:22:26.623Z",
  "networkType": "ethereum",
  "devdoc": {
    "methods": {}
  },
  "userdoc": {
    "methods": {}
  }
}